:020000040800F2
:1000000000000824CDB40008B9340008BB3400084F
:10001000BD340008BF340008C134000800000000EF
:10002000000000000000000000000000C3340008D1
:10003000C534000800000000C7340008C9340008B7
:100040001DB500081DB500081DB500081DB5000848
:100050001DB500081DB500081DB500081DB5000838
:100060001DB500081DB500081DB50008D1340008F5
:10007000E1340008F13400081DB500081DB5000882
:100080001DB500081DB500081DB500081DB5000808
:100090001DB500081DB500081DB500081DB50008F8
:1000A0001DB500081DB500081DB500081DB50008E8
:1000B000013500081DB500081DB5000829350008E8
:1000C0003935000849350008593500081DB50008C4
:1000D0001DB500081DB50008693500081DB50008EC
:1000E0001DB500081DB50008000000001DB5000882
:1000F0001DB500081DB500081DB500081DB5000898
:100100001DB500081DB50008793500081DB50008AB
:100110001DB500081DB500081DB500081DB5000877
:100120001DB500081DB500081DB500081DB5000867
:100130001DB500081DB500081DB500081DB5000857
:1001400000000000000000000000000000000000AF
:100150001DB500081DB500081DB500081DB5000837
:100160001DB500081DB500081DB500081DB5000827
:100170001DB500081DB500081DB5000800000000F1
:100180001DB500081DB500081DB500081DB5000807
:100190001DB500081DB500081DB500081DB50008F7
:1001A0001DB500081DB500081DB500081DB50008E7
:1001B0001DB500081DB500081DB500081DB50008D7
:1001C0001DB500081DB500081DB500081DB50008C7
:1001D0001DB500081DB500081DB500081DB50008B7
:1001E0001DB500081DB500081DB500081DB50008A7
:1001F0001DB500081DB500081DB500081DB5000897
:100200001DB500081DB500081DB500081DB5000886
:100210001DB500081DB500081DB500081DB5000876
:100220001DB500081DB500081DB500080000000040
:100230001DB500081DB50008000000001DB5000830
:100240001DB500081DB500081DB500081DB5000846
:100250001DB500081DB500081DB500081DB5000836
:100260001DB500081DB500081DB500081DB5000826
:100270001DB500081DB500081DB5000800000000F0
:100280001DB500081DB500081DB5000800000000E0
:08029000000000001DB500088C
:1002A00010B5054C237833B9044B13B10448AFF3B0
:1002B00000800123237010BD1802002400000000FC
:1002C00094F4000808B5034B1BB103490348AFF38E
:1002D000008008BD000000001C02002494F4000807
:1002E000034613F8012B002AFBD1181A0138704776
:1002F00001F0FF01102A2BDB10F0070F08D010F8D7
:10030000013B013A8B422DD010F0070F42B3F6D1DA
:10031000F0B441EA012141EA014122F007047FF0F3
:1003200000070023F0E80256083C85EA010586EA4A
:10033000010685FA47F5A3FA87F586FA47F6A5FA86
:1003400087F68EB9EED1F0BC01F0FF0102F0070292
:1003500032B110F8013B013A83EA010313B1F8D13D
:100360000020704701387047002D06BF354603381E
:10037000073815F0010F07D1013015F4807F02BF57
:10038000013015F4C03F0130F0BC0138704700BFA8
:1003900053B94AB9002908BF00281CBF4FF0FF31EC
:1003A0004FF0FF3000F074B9ADF1080C6DE904CEE8
:1003B00000F006F8DDF804E0DDE9022304B0704740
:1003C0002DE9F047089D04468E46002B4DD18A4208
:1003D000944669D9B2FA82F252B101FA02F3C2F13B
:1003E000200120FA01F10CFA02FC41EA030E9440CC
:1003F0004FEA1C48210CBEFBF8F61FFA8CF708FBED
:1004000016E341EA034306FB07F199420AD91CEBC4
:10041000030306F1FF3080F01F81994240F21C81F6
:10042000023E63445B1AA4B2B3FBF8F008FB10333E
:1004300044EA034400FB07F7A7420AD91CEB040473
:1004400000F1FF3380F00A81A74240F20781644443
:10045000023840EA0640E41B00261DB1D4400023C8
:10046000C5E900433146BDE8F0878B4209D9002D2C
:1004700000F0EF800026C5E9000130463146BDE8B6
:10048000F087B3FA83F6002E4AD18B4202D3824220
:1004900000F2F980841A61EB030301209E46002DCF
:1004A000E0D0C5E9004EDDE702B9FFDEB2FA82F224
:1004B000002A40F09280A1EB0C014FEA1C471FFA82
:1004C0008CFE0126200CB1FBF7F307FB131140EA69
:1004D00001410EFB03F0884208D91CEB010103F136
:1004E000FF3802D2884200F2CB804346091AA4B2F8
:1004F000B1FBF7F007FB101144EA01440EFB00FECC
:10050000A64508D91CEB040400F1FF3102D2A64530
:1005100000F2BB800846A4EB0E0440EA03409CE7CF
:10052000C6F12007B34022FA07FC4CEA030C20FA7C
:1005300007F401FA06F31C43F9404FEA1C4900FA9C
:1005400006F3B1FBF9F8200C1FFA8CFE09FB181119
:1005500040EA014108FB0EF0884202FA06F20BD98C
:100560001CEB010108F1FF3A80F08880884240F2DC
:100570008580A8F102086144091AA4B2B1FBF9F020
:1005800009FB101144EA014100FB0EFE8E4508D91B
:100590001CEB010100F1FF346CD28E456AD90238A0
:1005A000614440EA0840A0FB0294A1EB0E01A14285
:1005B000C846A64656D353D05DB1B3EB080261EBF3
:1005C0000E0101FA07F722FA06F3F1401F43C5E9CD
:1005D000007100263146BDE8F087C2F12003D84003
:1005E0000CFA02FC21FA03F3914001434FEA1C4745
:1005F0001FFA8CFEB3FBF7F007FB10360B0C43EA37
:10060000064300FB0EF69E4204FA02F408D91CEBE6
:10061000030300F1FF382FD29E422DD902386344E4
:100620009B1B89B2B3FBF7F607FB163341EA034184
:1006300006FB0EF38B4208D91CEB010106F1FF38D3
:1006400016D28B4214D9023E6144C91A46EA0046CA
:1006500038E72E46284605E70646E3E61846F8E65C
:100660004B45A9D2B9EB020864EB0C0E0138A3E7A5
:100670004646EAE7204694E74046D1E7D0467BE786
:10068000023B614432E7304609E76444023842E7FE
:10069000704700BFB0F800C043889C4514D00344A5
:1006A0001B790B70B0F802C06421084B01FB0C33BE
:1006B000136042880132064B83FB02C35B1101FBCE
:1006C000132343800020704701207047182A00241C
:1006D0001F85EB5110B5048804F1010C104B83FB0E
:1006E0000CE35B114FF0640E0EFB13C39BB2B0F82A
:1006F00002C09C4512D0038020440271002309E00F
:1007000011F803C007484FF0640E0EFB040000F818
:1007100003C001339A42F3DC002010BD0120FCE746
:100720001F85EB51182A002410B502888318012474
:1007300083F868402244104B83FB02435B1164241E
:1007400004FB13231FFA83FC4288624510D09BB23E
:10075000C418002284F868204FF0640E84F804E086
:10076000A0F800C005480EFB03030B60104610BD47
:10077000034B0B600120FAE71F85EB5108030024AF
:100780009051002410B44388C41894F86840ECB128
:1007900000EB030C00248CF868400488A34217D0B7
:1007A0009CF804300B70448864210A4B01FB04332D
:1007B000136042880132084B83FB02435B1101FB4B
:1007C0001323438000205DF8044B70470120FAE7B3
:1007D0000120F8E7080300241F85EB5110B5002421
:1007E00020E007F0E9FE3B4B04F5966223F8120087
:1007F00007EE904AB8EEE77A374AD2ED007AF8EE83
:10080000677A37EE277A03EB840282ED007A9FED58
:10081000337A77EE877A04F5967203EB8203C3EDA1
:10082000007A0134632CDCDD002422E007F0C4FEF2
:1008300004F16402274B04F2145123F811002649F5
:10084000D1ED007AF8EE677A9FED257A37EE877A58
:1008500003EB820282ED007A07EE104AB8EEC77A07
:1008600077EE877A04F5C87203EB8203C3ED007A52
:100870000134632CDADD002424E007F09DFE04F14E
:10088000C802144B04F5AF6123F8110007EE904A3B
:10089000B8EEE77ADFED126A36EEC77A0E49D1ED8F
:1008A000007AF8EE677A37EE277A03EB820282ED60
:1008B000007A77EEA67A04F5FA7203EB8203C3EDB1
:1008C000007A0134632CD8DD034A136805331360C2
:1008D00010BD00BF90520024A4510024000000006D
:1008E0000000C84210B59AB0422301936022002153
:1008F00002A80AF039FE1C4C1C4B1B78237007F031
:100900005BFEC4F8010009238DF80430234613F878
:10091000012B8DF805200DF106023134D3F800E0EB
:10092000D3F804C09868D968C2F800E0C2F804C0DF
:100930009060D16010331032A342EFD1196811607A
:100940009B889380642201A90948FFF7C3FE0346F0
:1009500010B10123074A137004490A7801320A7062
:1009600018461AB010BD00BFC05100245C5E0024C0
:1009700028510024B851002400B58BB00023059302
:1009800006930793089309930493039302930193A7
:1009900004A940F215100AF067FB03A94FF48B700D
:1009A0000AF062FB02A940F217100AF05DFB01A9F0
:1009B0004FF48C700AF058FB11238DF81430114B52
:1009C0001B788DF81530049BCDF81630039BCDF8BD
:1009D0001A30029BCDF81E30019BCDF822306422E4
:1009E00005A90948FFF776FE034610B10123074A1F
:1009F000137004490A7801320A7018460BB05DF88A
:100A000004FB00BF5E5E002428510024B85100247E
:100A100000B589B0002303930493059306930793CD
:100A20000293019302A940F219100AF01DFB01A9DB
:100A30004FF48D700AF018FB13238DF80C300E4B19
:100A40001B788DF80D30029BCDF80E30019BCDF850
:100A50001230642203A90948FFF73CFE034610B197
:100A60000123074A137004490A7801320A701846B4
:100A700009B05DF804FB00BF5D5E0024285100242E
:100A8000B851002438B5002303E0204A0021D15496
:100A90000133632BF9DD1E4B1B7833B11C4B002255
:100AA0001A701C4A138801331380184C08232370D2
:100AB000194D2B78637007F07FFDA070C0F30723FA
:100AC000E370C0F307432371C0F307606071134AFA
:100AD000538812889B1A6433A371C3F30723E3710D
:100AE0000C4B1A7822725B7863720D4B1A78A272E3
:100AF0005B78E37200232373637364222146094801
:100B000009F0B0F92B7801332B7038BD2C5200243A
:100B1000B8510024BA510024495E00242851002411
:100B20004A5E0024746300241C4BD3F88430202BCD
:100B300006D01B4A13889BB201339BB213807047C7
:100B400000B583B007F038FD164B1B68C01A41F2A0
:100B5000873398420CD907F02FFD124B1860124AC8
:100B6000138801331380FFF78DFF03B05DF804FB9A
:100B7000002301938DF8033001AA0DF103010B4806
:100B8000FFF788FD0028F0D1074A1388013313804E
:100B900064220199014809F065F9E6E774630024CD
:100BA000505E0024340200244A5E002428510024B0
:100BB00000B59FB000210591602206A80AF0D4FC80
:100BC0000B238DF814303B4B1B788DF8153004A99E
:100BD00040F201100AF026FC03A94FF481700AF0DC
:100BE00021FC02A940F203100AF01CFC01A94FF4F9
:100BF00082700AF017FC049BCDF81630039BCDF8E9
:100C00001A30029BCDF81E30019BCDF8223004A98A
:100C100040F205100AF006FC03A94FF483700AF0B5
:100C200001FC02A940F207100AF0FCFB01A94FF4F5
:100C300084700AF0F7FB049BCDF82630039BCDF8B7
:100C40002A30029BCDF82E30019BCDF8323004A91A
:100C500040F209100AF0E6FB03A94FF485700AF090
:100C6000E1FB02A940F20B100AF0DCFB01A94FF4F2
:100C700086700AF0D7FB049BCDF83630039BCDF885
:100C80003A30029BCDF83E30019BCDF842306422D1
:100C900005A90948FFF71EFD034610B10123074AC5
:100CA000137004490A7801320A7018461FB05DF8C3
:100CB00004FB00BF615E002428510024B8510024C9
:100CC00000B58BB00023059306930793089309930F
:100CD00004A94FF487700AF0A5FB03A940F20F1096
:100CE0000AF0A0FB02A94FF488700AF09BFB01A94F
:100CF00040F211100AF0B8F90D238DF81430114BA1
:100D00001B788DF81530049BCDF81630039BCDF879
:100D10001A30029BCDF81E30019BCDF822306422A0
:100D200005A90948FFF7D6FC034610B10123074A7D
:100D3000137004490A7801320A7018460BB05DF846
:100D400004FB00BF605E002428510024B851002439
:100D500000B589B00023039304930593069307938A
:100D600002A94FF489700AF05DFB01A940F213104B
:100D70000AF07AF969464FF48A700AF075F90F2380
:100D80008DF80C300F4B1B788DF80D30029BCDF891
:100D90000E30019BCDF81230009BCDF81630642246
:100DA00003A90948FFF796FC034610B10123074A3F
:100DB000137004490A7801320A70184609B05DF8C8
:100DC00004FB00BF5F5E002428510024B8510024BA
:100DD00002680B4B9A4200D0704700B583B007F011
:100DE000EBFB084B186001A90748FFF79DFC642244
:100DF0000199064809F0CEFF03B05DF804FB00BF7F
:100E000000440040AC5100243C02002474630024E0
:100E10002DE9F0472DED0A8B0027002F03DDBDECF7
:100E20000A8BBDE8F0877A4B1B88B3F5967F00F0FC
:100E3000C08007F0C1FB774CC4F80100DFF8D09107
:100E4000B9F80060744B03EB86021268C4F81120F5
:100E500006F5967203EB82031B68C4F81530DFF8C1
:100E6000BC8198F8005007EE905AF8EE677A17EEBA
:100E7000903AC4F81D30DFF8A8A19AED008AB7EEC9
:100E8000C88A9FED4FCB28EE0CCBB0EE4C0B0DF08B
:100E9000EFF9B0EE409B9FED4C7B20EE077BB7EE69
:100EA000C77B17EE103AC4F8193030EE00AB9FED57
:100EB000480B28EE000B0DF0DBF99FED47BBB0EEC1
:100EC0004A7B00EE0B7BB7EEC77B17EE103AC4F8F7
:100ED0000530B0EE4C0B0DF08BF930EE00CB9FEDF2
:100EE000400B28EE000B0DF0C3F900EE0BCBB7EE74
:100EF000CC7B17EE103AC4F809309FED3B0B28EE7F
:100F0000000B0DF0B5F99FED3A6BB0EE4A7B00EEA9
:100F1000067BB7EEC77B17EE103AC4F80D302823D6
:100F200084F8213084F8223084F823303F2284F87A
:100F30002420402284F8252005F1410284F826204F
:100F400005F1420284F8272084F8283084F82930FB
:100F500084F82A3084F82B3084F82C3084F831500F
:100F60006B1D84F83230B7EEC99B19EE103AC4F805
:100F70002D309FED210B28EE000B0DF079F99FED40
:100F8000206B00EE06ABB7EECA7B17EE103AC4F842
:100F900033309FED1D7B38EE078BB7EEC88B8AEDA3
:100FA000008A0136A9F80060013588F80050013741
:100FB00033E7FFF713FC164B01221A8039E700BF15
:100FC000182D4454FB211940182D4454FB2109408D
:100FD000D221337F7CD932409A9999999999A93F26
:100FE00075A7BBE9BBFD45405E3855297A6A4F407D
:100FF000333333333333D33FA46477349C6B54405F
:101000009A9999999999C93F7B14AE47E17A843F9F
:1010100028520024C05100249052002400000024D3
:10102000545E002408B507F0C7FA124B1B68C01ABB
:10103000132803D9104B1B78012B0BD007F0BCFAF7
:101040000C4B1B68C01A132803D90B4B1B78022BBF
:1010500007D008BD07F0B0FA064B1860FFF742FC56
:10106000F7E707F0A9FA034B1860FFF7D1FEFFF787
:1010700039FCEEE724520024B951002410B592B097
:101080000023119311A940F2371009F0EDFF119BD5
:10109000012B08D064222E492E4809F07BFEFFF771
:1010A0009DFB12B010BD2C4A0AAB92E8030083E806
:1010B000030000240C940D940E940F948DF840407E
:1010C00001A940F2331009F0CFFF02A94FF49A7042
:1010D00009F0CAFF03A940F2351009F0C5FF04A9C1
:1010E0004FF49B7009F0C0FF234607220F2B09DC49
:1010F00003F14801694411F8441C31B30132D2B202
:101100000133F3E707230AE003F14101694411F8D1
:10111000440C03F14801694401F8200C0133911D8E
:101120009942F1DA0B4C64220AA9204608F09AFE93
:10113000642314220DEB0201204609F0E6FC002195
:1011400040F2371009F090FFA4E70723E7E700BF5C
:101150000803002474630024B0F4000800B50D4BAC
:10116000D0F800C041688268D0F80CE0C3F805C030
:10117000C3F80910C3F80D20C3F811E0D0F810C06F
:1011800041698269C3F815C0C3F81910C3F81D205E
:101190005DF804FBC051002400B50A4BD0F800E014
:1011A000D0F804C08168C268C3F821E0C3F825C044
:1011B000C3F82910C3F82D20028AA3F831205DF866
:1011C00004FB00BFC05100240023092B09DC054AA1
:1011D00052F823200AB10133F7E7024A42F823000C
:1011E00070477047F8510024014B1860704700BFEA
:1011F000BC510024034B1B78012B01D00020704709
:1012000001207047A85100240FB470B5C2B046AC9D
:1012100054F8046B07F0D0F9054642230293FB22F1
:10122000002103A80AF0A0F90194224631460DF1ED
:101230000E000AF0F9FD02238DF808300B4B1B78E5
:101240008DF80930CDF80A50642202A90848FFF74A
:1012500041FA10B1074B01221A70044A1378013386
:10126000137042B0BDE8704004B07047485E00247F
:1012700028510024B8510024F0B58FB000230D93FD
:101280008DF833300DAA0DF13301BB48FFF77AFA20
:1012900030B1BA4B1B78002B40F0BB810FB0F0BDD2
:1012A0000D9C257807F088F9B54B1860EB1E122BC2
:1012B00000F2A781DFE813F0EA00F300FC0003016D
:1012C0000A01A501A5019000130093009600C0003B
:1012D000C30011011401330136014E0180010023C6
:1012E000009301930293039304930593069307934A
:1012F000089309930A930B93D4F802300093D4F81F
:1013000006200192D4F80A200292D4F80E2003920B
:10131000D4F812200892D4F816200992D4F81A2092
:101320000A92D4F81E200B92D4F822200492D4F80A
:1013300026200592D4F82A200692D4F82E2007926F
:1013400000EE103A40F201100AF094F89DED010A07
:101350004FF481700AF08EF89DED020A40F20310FE
:101360000AF088F89DED030A4FF482700AF082F8C3
:101370009DED080A40F205100AF07CF89DED090A7F
:101380004FF483700AF076F89DED0A0A40F20710D8
:101390000AF070F89DED0B0A4FF484700AF06AF8B9
:1013A0009DED040A40F209100AF064F89DED050A6B
:1013B0004FF485700AF05EF89DED060A40F20B10BE
:1013C0000AF058F89DED070A4FF486700AF052F8BB
:1013D0006A4B01221A705CE7FFF7EAFB59E7FFF757
:1013E0006FFC56E7002309930A930B93D4F802305D
:1013F0000993D4F806200A92D4F80A200B92D4F864
:101400000E4000EE103A4FF487700AF033F89DED6D
:101410000A0A40F20F100AF02DF89DED0B0A4FF466
:1014200088700AF027F8214640F211100AF004F8FB
:10143000524B01221A702CE7FFF78AFC29E7D4F8F7
:101440000230504A1360504DD4F806202A60D4F878
:101450000A104E4A116000EE103A4FF489700AF0FB
:1014600009F82968012907D9484B1968012908D9C1
:10147000424B01221A700CE740F2131009F0DCFF16
:10148000F2E74FF48A7009F0D7FFF1E70123404AF1
:101490001370404A13704048FFF7B6FEF9E6002388
:1014A0003B4A13703B4A13703C48FFF7ADFEF0E631
:1014B000384B02221A703A48FFF7A6FEE9E6354B90
:1014C00001221A703748FFF79FFEE2E6314B0022F7
:1014D0001A703548FFF798FEDBE6FFF74DFAD8E6BD
:1014E000D4F80670D4F80A60D4F80E50D4F802107C
:1014F00040F2151009F0A0FF39464FF48B7009F047
:101500009BFF314640F2171009F096FF29464FF431
:101510008C7009F091FF194B01221A70B9E6FFF7A0
:1015200077FAB6E6D4F80230204A1360204DD4F89A
:1015300006202A6000EE103A40F2191009F09AFFD6
:1015400095ED000A4FF48D7009F094FF0B4B0122CA
:101550001A709EE6D4F802200A92D4F806100B9175
:10156000144B1B68002B3FF494AE00EE901A00EE73
:10157000102A98478DE600BF3C020024F751002452
:10158000B051002438020024B45100244C5E0024E1
:10159000A8510024B9510024CCF40008E0F400085C
:1015A000F4F400080CF5000824F50008205200248B
:1015B000585E0024BC510024D4F80670D4F80A60A8
:1015C000D4F80E5054F8021F40F2331009F034FFE3
:1015D00039464FF49A7009F02FFF314640F235102A
:1015E00009F02AFF29464FF49B7009F025FF214698
:1015F0001548FFF709FE012140F2371009F01CFFE2
:1016000047E6002D3FF445AE29461048FFF7FCFDA4
:101610003FE606F0D1FF0E4B1B68C01A32287FF65A
:101620003DAE00240B4B1C7001E098470134092C9F
:1016300005DC094B53F82430002BF6D1F6E70748B8
:10164000FFF7E2FD2AE600BF30F500084CF5000880
:10165000B0510024F7510024F851002474F500081B
:1016600008B5FFF7DFFCFFF707FEFFF75DFA08BDDF
:1016700010B4314B1A69541C1C611A681088C0439D
:1016800080B25A681188C94389B29A8A821A12B202
:1016900005EE102ADA8A8A1A12B206EE102AD3ED63
:1016A000077AB8EEC55A25EE275A83ED025AB8EEEE
:1016B000C66A26EE276A83ED036AB7EEC55A9FED28
:1016C0001C4B85EE047BB7EEC77B83ED087AB7EE43
:1016D000C66A86EE045BB7EEC55B83ED095A37EE4A
:1016E000057AF6EE007A27EE277A83ED0A7A67EE1E
:1016F000277AD3ED0B6A76EEA77AC3ED0B7AD3ED9A
:101700000C6A0122B2FBF4F237EE667A07EE902AF9
:10171000F8EE677A27EE877A36EE877A36EE877AA2
:1017200083ED0C7A9882D9825DF8044B704700BF34
:101730007B14AE47E17A943F0400002410B5074CB7
:1017400004F11C0140F2191009F06CFE04F11801BB
:101750004FF48D7009F066FE10BD00BF0400002438
:1017600008B5FFF7EBFF08BD10B52DED0A8B234C34
:1017700094ED05BA224BD3ED067AB7EE007A87EEE8
:1017800027AA93ED029AD3ED039A79EE697A2AEEAD
:1017900027AA3BEE0AAA84ED02AA94ED038AB7EECB
:1017A000C88AB7EECBBAB0EE4B0B0CF021FDB6EE0B
:1017B00000CB20EE0C0B39EE299AB7EEC99A00EE59
:1017C000098BF7EEC8ABC4ED00AA94ED048AB7EE1E
:1017D000C88AB0EE4B0B0CF04BFD20EE0CCB09EEA3
:1017E0000C8BB7EEC88B84ED018AC4ED03AA84ED9F
:1017F000048A84ED05AABDEC0A8B10BD685E002446
:101800000400002400B589B00023019302930393E0
:101810000493059306930793094B1A6A01925A6A37
:101820000292084A116804915168059192680692E3
:10183000DB6A079301A8FFF791FC09B05DF804FB90
:1018400004000024685E002438B5164D3C2128466B
:1018500008F056F9144C3C21204608F051F90021BB
:10186000206840F8241F2A6842F8241F0F4B186094
:101870005A6000229A60DA6019619982D9821A62EC
:101880005A629A62DA621A633C21284608F0D4F858
:101890003C21204608F0D0F8FFF750FF0448FFF73E
:1018A00093FC38BDA06100243862002404000024A9
:1018B0006117000808B501F067FE084B1B68C833C4
:1018C000984200D808BD01F05FFE044B1860FFF796
:1018D000CFFEFFF749FFFFF795FFF3E7645E0024B3
:1018E000014B93ED020A7047685E0024014B93EDB3
:1018F0000B0A70470400002408B509F0D9FBFFF774
:10190000BDFB00F099FBFFF79FFF00F0F5FD00F035
:1019100069FB08BD30B585B001F036FE3A4C206059
:101920003A4A13680133136000F09CFBFFF798FEFE
:1019300000F0F4FDFFF7BEFF00F064FB01F024FEB1
:10194000334B18602368C01A324B1B68984227D269
:101950002E4B93ED007AB8EE477AF7EE007AC7EE99
:10196000876A2B4B1B68284A12689B1A07EE903A2D
:10197000F8EE677A67EEA67A274B93ED007A77EE5A
:10198000C77A77EE277AC3ED007A06F015FE234B6F
:101990001B68C01A41F28833984208D805B030BDA0
:1019A0001C4B186001F0F0FD1D4B1860D0E706F0ED
:1019B00003FE1A4B1860174DD5ED007AF8EE677AE2
:1019C000F2EE046AC7EEA65A154BD3ED007AF8EE94
:1019D000677A87EEA67A104C94ED006AB7EEC66A75
:1019E0008DED026BB7EEC77A8DED007BB7EEE57A31
:1019F00053EC172B0B48FFF707FC00232B60034A1F
:101A0000136000232360C9E7885E0024985E0024E9
:101A1000845E0024905E0024805E00248C5E00249E
:101A2000945E002494F50008064B1B68C1F57A719A
:101A300099634FF47A725A63034B1B68101A586308
:101A40009A6370475461002408610024064B1B68A8
:101A50004FF47A729A63511A5963044B1B68101A37
:101A600058639A63704700BF5461002408610024E2
:101A7000064B1B68C1F57A7199634FF47A725A6309
:101A8000034B1B685A63101A986370475461002413
:101A900008610024054B1A684FF47A73536393630B
:101AA000034A126853639363704700BF5461002474
:101AB000086100242849D1ED0E7AD1ED036A36EE93
:101AC000A77A77EEE67A91ED0F6AB8EE466A66EE8F
:101AD000075A91ED117AB8EE477A37EE257A26EE5D
:101AE000866A37EE067ABDEEC77A17EE102A81EDC8
:101AF000137A91ED107AB8EE476A26EE277AD1ED87
:101B0000127AF8EE677A77EE877A66EE866A77EE73
:101B1000E67AFDEEE77A17EE903AC1ED147AB2F567
:101B20007A7F0BDD0A464FF47A71D164B3F57A7F80
:101B30000BDD094B4FF47A721A65704712F57A7F04
:101B4000F4DA054A0549D164F0E713F57A7F02DA41
:101B5000014B024A1A657047A05E002418FCFFFF83
:101B600008B50D4BD86C002808DB00280ADD0A4BAD
:101B7000196D00290CDBFFF757FF08BD1B6D002B0B
:101B8000F3DAFAE7044B196D4042FFF771FFF4E70F
:101B90004942FFF75BFFF0E7A05E002408B5234B46
:101BA000D3ED0F7AB8EE677A27EE007AD3ED117A8B
:101BB000B8EE670A30EE070AFDEEC07A17EE900A1B
:101BC000D3ED107AF8EE677A67EEA07AD3ED120AB9
:101BD000F8EE600A70EEA70AFDEEE07A17EE901AB2
:101BE000B0F57A7F04DC10F57A7F03DA104801E063
:101BF0004FF47A70B1F57A7F04DC11F57A7F03DA5D
:101C00000B4901E04FF47A71084205D4002804DD45
:101C1000002906DBFFF708FF08BD4042FFF728FF59
:101C2000FAE74942FFF712FFF6E700BFA05E002483
:101C300018FCFFFF10B5084CC4ED030A84ED020A3E
:101C40000123237006F0B8FC07EE900AF8EE677ADD
:101C5000C4ED017A10BD00BF0C5F002410B5164C16
:101C60002368E36106F0A8FC144B1B68C01AA36A42
:101C7000984211D8104BD3ED047A93ED077A67EEB2
:101C8000877A93ED057AD3ED096A27EE267A77EE07
:101C9000877AC3ED037A10BD94ED007A084BD3ED3B
:101CA000007A77EE677AC4ED097A83ED007A06F060
:101CB00083FC024B1860DDE7A05E0024285F00244F
:101CC000045F002410B51C4C04F13C0140F21510D7
:101CD00009F0CAF904F140014FF48B7009F0C4F91E
:101CE00004F1440140F2171009F0BEF904F1480173
:101CF0004FF48C7009F0B8F904F110014FF48770BB
:101D000009F090FB04F1180140F20F1009F08AFB72
:101D100004F114014FF4887009F084FB04F12801E8
:101D200040F2111009F0A0F904F138014FF4897064
:101D300009F078FB10BD00BFA05E002438B50D4D42
:101D40000021284607F0C8FD0421284607F0C4FDFD
:101D5000094C0021204607F0BFFD0421204607F072
:101D6000BBFD2A6800239363536322685363936324
:101D700038BD00BF546100240861002410B5FFF78E
:101D8000AFFD064C84ED050AFFF7B0FD84ED040AB3
:101D900000F0CAFB024B83ED000A10BD0C5F00246B
:101DA000A05E00240000000008B5B7EEC01AB7EE30
:101DB000E00A0CF09DFAB7EEC00BB5EEC00AF1EEEA
:101DC00010FA07D4DFED2E7A37EEC00A2D4BD3ED93
:101DD000057A10E0B0EEC00AB7EEC00A9FED267B90
:101DE00037EE400B30EE070BB7EEC00BEAE79FED86
:101DF000247A77EE877AB0EEE77ADFED216AB4EEE7
:101E0000E67AF1EE10FA09DB9FED1D7AF4EEC77A5F
:101E1000F1EE10FAEBDD77EEC77AECE7F5EEC07A7B
:101E2000F1EE10FA1BD470EE677AF5EEC07AF1EE9F
:101E300010FA17DD9FED120A37EEC00AB0EEC00AA5
:101E4000F5EEC07AF1EE10FA0FD4F0EEE77AF4EE88
:101E5000C07AF1EE10FA01D5B1EE670A08BD77EE4F
:101E6000A67AE0E7B0EEE70AEAE79FED057A77EEBB
:101E7000877AECE7AFF3008000000060FB210940A7
:101E8000DB0FC9400C5F002408B5324BD3ED030AC9
:101E9000F5EE400AF1EE10FA06D093ED020AB5EE27
:101EA000400AF1EE10FA05D12A4B00221A70FFF712
:101EB000F1FD08BDFFF778FF274B83ED000AF0EE38
:101EC000007AB4EEE70AF1EE10FA01DDC3ED007A14
:101ED000214B93ED007AF8EE007AB4EEE77AF1EE5A
:101EE00010FA01D5C3ED007A06F066FB1B4B1B68A8
:101EF000C01A14281BD8184BD3ED007A9FED180A8E
:101F000067EE807A174B93ED000A9FED177A20EE6B
:101F1000070A77EE807A154BC3ED007AB6EE000A19
:101F200077EE800A30EE670AFFF738FEC1E70A4B0A
:101F300093ED007A0E4BD3ED007A77EE677A094A7B
:101F4000C2ED007A83ED007A06F036FB034B186091
:101F5000D1E700BF0C5F0024FC5E0024245F002456
:101F60006666E63EF85E00249A99993E005F00247A
:101F7000085F002410B5FFF73DF9044610B9154B72
:101F80001B78CBB9144B1B78A34211D0BBB106F020
:101F900013FB124B19680F4BD3ED047AB7EEE77AB7
:101FA00053EC172B411A0E48FFF72EF9FFF772FD7D
:101FB00064B9094B1C7010BDFFF766FFE2E7FFF73D
:101FC00043FC06F0F9FA054B1860F1E7FFF7C8FD8E
:101FD000EFE700BF0C5F00242C5F00249C5E002410
:101FE000CCF5000808B5FFF76DFE0448FFF7ECF8E4
:101FF0000348FFF7F9F8FFF7A1FE08BDC51C00086C
:10200000351C000808B5FFF7B9FEFFF727FEFFF7FC
:1020100051FDFFF7AFFF08BD00B583B001A940F245
:10202000131009F021F89DF80420024B1A7003B038
:102030005DF804FB345F002400B583B001A940F2D1
:10204000131009F011F89DF80420044B1A7004488D
:10205000FFF7BAF803B05DF804FB00BF345F00245B
:102060001920000810B5134B1B78012B0BD0124C14
:1020700000220221204604F0EFFD00220421204628
:1020800004F0EAFD10BD0D4B1C6804F5FA7406F06F
:1020900093FA8442F6D206F08FFA084B1860064C89
:1020A0000221204604F0DEFD0421204604F0DAFD82
:1020B000E8E700BF345F002400080258305F0024C6
:1020C00007EE900AF8EE677A9FED067A67EE877A58
:1020D0009FED057A77EE877AFCEEE77A17EE903A75
:1020E00098B2704700007F3D000000008B4BDB89F9
:1020F00040F6B832934206D9884A918940F6B83200
:10210000914200F29680854A128A40F6B8318A429E
:1021100006D98249488A40F6B831884200F28D805B
:1021200040F6B8318B4202D98A4200F28C8040F6E8
:10213000B8318A4200F28D8040F6B832934200F204
:102140008E80764B9B8A40F6B832934206D9734A0A
:10215000518A40F6B832914200F285806F4A528926
:1021600040F6B8318A4205D96C49888940F6B831C1
:1021700088427ED86949488A40F6B83188427CD87E
:102180006649888940F6B83188427CD86349C98A53
:1021900040F6B830814201D9834278D85F4800893F
:1021A00040F6B83C604501D9624576D840F6B83C67
:1021B000634576D840F6B8339A4278D8574B1B8B94
:1021C00040F6B832934201D9914274D8534AD2882A
:1021D00040F6B83C624501D9604572D840F6B83C3B
:1021E000614572D840F6B831884274D84B49498B62
:1021F00040F6B830814201D9834270D84748808880
:1022000040F6B83C604501D962456ED840F6B83C0E
:1022100063456ED840F6B8339A4270D840F6B8336A
:10222000994270D840F6B833984272D89FED3C0A74
:1022300070473A4B93ED080A7047384B93ED080A04
:10224000B1EE400A70479FED370A344B83ED000A28
:102250007047324B93ED070AB1EE400A70472F4B9F
:1022600093ED070A70472D4B93ED0A0AB1EE400A31
:1022700070472A4B93ED0A0A7047284B93ED090AE1
:10228000B1EE400A7047254B93ED090A7047234B86
:1022900093ED0C0AB1EE400A7047204B93ED0C0A07
:1022A00070471E4B93ED0B0AB1EE400A70471B4B73
:1022B00093ED0B0A7047194B93ED0E0AB1EE400AED
:1022C0007047164B93ED0E0A7047144B93ED0D0AB1
:1022D000B1EE400A7047114B93ED0D0A70470F4B5A
:1022E00093ED100AB1EE400A70470C4B93ED100AC3
:1022F00070470A4B93ED0F0AB1EE400A7047074B47
:1023000093ED0F0A7047054B93ED110AB1EE400AA9
:102310007047024B93ED110A704700BF385F0024ED
:1023200000C079440000000010B5254C04F11C01E8
:1023300040F2011009F076F804F120014FF48170A9
:1023400009F070F804F1240140F2031009F06AF872
:1023500004F128014FF4827009F064F804F12C01B3
:1023600040F2051009F05EF804F130014FF483707B
:1023700009F058F804F1340140F2071009F052F85E
:1023800004F138014FF4847009F04CF804F13C0179
:1023900040F2091009F046F804F140014FF485704D
:1023A00009F040F804F1440140F20B1009F03AF84A
:1023B00004F148014FF4867009F034F810BD00BFF5
:1023C000385F002408B5FFF7AFFF08BD10B5002443
:1023D00000E00134022C0FDC304B03EB44039A88FD
:1023E00040F6B8339A42F4D906F0E6F82C4B186060
:1023F0002C4B02221A60ECE70B2400E0013C092C74
:102400000FDD264B03EB44039A8840F6B8339A421B
:10241000F4D906F0D1F8224B1860224B01221A6041
:10242000ECE7204B1B68E3B9FFF760FEDFED1E7A97
:10243000B4EE670AF1EE10FA0BD11A4B1B68012BB0
:102440001AD0022B22D0194B93ED000A134B83EDC7
:10245000000A164B83ED000A104B83ED000A0020A2
:1024600010BD0F4B1C681E3406F0A6F88442DBD268
:102470000C4B00221A60D7E706F09EF8084B186054
:10248000064B93ED120AB1EE400ADFE706F094F82E
:10249000034B1860014B93ED120AD7E7385F002415
:1024A000885F00248C5F002400C07944905F002482
:1024B00010B586B000240194029403940494ADF8FE
:1024C00014400DE0C4F10B020A4B03EB4203988861
:1024D000FFF7F6FD04F118036B4403F8140C013404
:1024E0000B2CEFDD034B1B68049301A8FEF754FE91
:1024F00006B010BD385F002408B50C220449054819
:1025000001F0D0FBFFF710FF0348FEF75DFE08BDAA
:102510003C5F0024945F0024C523000808B5FFF742
:1025200055FFFFF7C5FF08BD014B93ED000A70474B
:10253000385F002470B59CB04C22002109A809F036
:1025400013F82022002101A809F00EF8022005F05E
:102550003DFF00230093224B9A6942F440429A6166
:102560009B6903F4404300931E4BDA6A42F0010278
:10257000DA62DB6A03F001030093009B184B9B694E
:1025800013F4005FFAD00223099301220C92402435
:102590000D94129300251395042614963C2215924F
:1025A00016931022179218930C2319931A951B95C2
:1025B00009A801F09BFE3F23019303230293039597
:1025C00008230493059406944FF4806307930894BA
:1025D00031460DEB060002F0A7FA1CB070BD00BF3B
:1025E000004802580004005800B5B1B0BC220021D8
:1025F00001A808F0B9FF4FF00043019301A802F0D1
:102600002FFD31B05DF804FB08B505F09BFF04F029
:1026100019F8FFF78FFFFFF7E7FF00F027F800F04A
:102620008FFA00F0EFF800F007FE00F085FE00F0F2
:10263000AFFB00F0B1FA00F03FFC00F0D9FA00F077
:10264000A7FD00F071FC00F001FC4FF08043DA6858
:1026500042F00202DA601A6842F001021A60FFF7E3
:102660004BF9FFF757F9FCE7704700002DE9F04FF1
:102670008BB00024059406940794089409945A4B4F
:10268000D3F8E02042F01002C3F8E020D3F8E020B5
:1026900002F010020092009AD3F8E02042F0040207
:1026A000C3F8E020D3F8E02002F004020192019A7E
:1026B000D3F8E02042F00102C3F8E020D3F8E02094
:1026C00002F001020292029AD3F8E02042F00202E4
:1026D000C3F8E020D3F8E02002F002020392039A4C
:1026E000D3F8E02042F00802C3F8E020D3F8E0304D
:1026F00003F008030493049BDFF8009122460621AF
:10270000484604F0A9FA394D012243F20101284656
:1027100004F0A2FA364F01224FF40041384604F08B
:102720009BFADFF8DC8022461821404604F094FA38
:1027300006230593012606960794089405A94846A2
:1027400004F08CF94FF4405305934FF01109CDF884
:1027500018900794089405A9284604F07FF944F2DC
:1027600002030593234B0693079405A9284604F01A
:1027700075F94FF4004ACDF814A00694079405A902
:10278000284604F06BF94FF4805BCDF814B0069442
:10279000079405A9184804F061F9CDF814B006941F
:1027A000079405A9384604F059F9CDF814A0CDF8DE
:1027B00018900794089405A9384604F04FF9182397
:1027C000059306960794089405A9404604F046F937
:1027D000059606960794089405A9284604F03EF944
:1027E0000BB0BDE8F08F00BF004402580010025843
:1027F000000002580000111100040258000802589D
:10280000000C025800B58BB000230793089309937E
:1028100000930193029303930493059306936E48E8
:102820006E4A02604FF44022426008228260012218
:10283000C26004210161037542750C228261037735
:10284000436283620322C2624FF480520263436395
:1028500080F8383001F066FB002840F093800023B8
:10286000079307A95C4801F08FFC002840F08D8099
:102870005B4B0093062301930323029340F2FF7303
:10288000039304230493002305936946524800F000
:102890002BFF00287CD1534B00930C2301936946F6
:1028A0004D4800F021FF002875D14F4B00931223B3
:1028B00001936946484800F017FF00286ED14B4B42
:1028C0000093182301936946434800F00DFF002848
:1028D00067D1474B00934FF48073019369463E489C
:1028E00000F002FF00285FD1424B00934FF4837346
:1028F00001936946384800F0F7FE002857D13E4B57
:1029000000934FF4867301936946334800F0ECFE60
:1029100000284FD1394B00934FF4897301936946D6
:102920002D4800F0E1FE002847D1354B00934FF4CD
:102930008C7301936946284800F0D6FE00283FD1E9
:10294000304B00934FF4007301936946224800F026
:10295000CBFE002837D12C4B009340F20623019385
:1029600069461D4800F0C0FE80BB284B00934FF421
:10297000037301936946184800F0B6FE48BB0BB0DC
:102980005DF804FBFFF770FE69E7FFF76DFE6FE788
:10299000FFF76AFE7FE7FFF767FE86E7FFF764FE53
:1029A0008DE7FFF761FE94E7FFF75EFE9CE7FFF718
:1029B0005BFEA4E7FFF758FEACE7FFF755FEB4E770
:1029C000FFF752FEBCE7FFF74FFEC4E7FFF74CFEF0
:1029D000CBE7FFF749FED2E7945F002400200240D6
:1029E00000002143000052470040C03A0080F03E02
:1029F0000000844B0000B84F0800900C8000501D70
:102A00001000C010000180210002B0252000F01449
:102A100070B5B8B0044600213391349135913691A8
:102A20003791BC2204A808F09FFD22683D4B9A42D2
:102A300001D038B070BD4FF4002304934FF400333D
:102A40002C9304A802F00CFB002865D1364BD3F878
:102A5000D82042F02002C3F8D820D3F8D82002F0C2
:102A600020020092009AD3F8E02042F00102C3F85D
:102A7000E020D3F8E02002F001020192019AD3F89D
:102A8000E02042F00402C3F8E020D3F8E02002F096
:102A900004020292029AD3F8E02042F00202C3F844
:102AA000E020D3F8E03003F002030393039BFF23FD
:102AB0003393032634960025359533A91B4803F03C
:102AC000CDFF302333933496359533A9184803F05E
:102AD000C5FF33963496359533A9164803F0BEFFEB
:102AE0001548164B0360092343608560C5604FF4A9
:102AF000806303614FF4006343614FF400538361CB
:102B00004FF48073C3610562456204F0C9FA30B9BD
:102B1000094BE3649C638CE7FFF7A6FD96E7FFF79C
:102B2000A3FDF5E7002002400044025800000258CF
:102B30000008025800040258F85F00241000024008
:102B400000B583B0134BD3F8D82042F00102C3F88C
:102B5000D820D3F8D83003F001030193019B002261
:102B600011460B2005F06EFC0B2005F0A1FC0022A5
:102B700011460C2005F066FC0C2005F099FC0022A3
:102B800011460D2005F05EFC0D2005F091FC03B010
:102B90005DF804FB0044025808B51248124B03606C
:102BA000124B4360002383600122C26003614361D2
:102BB0008361C361036205F055FD50B900210948E6
:102BC00006F02AF940B90021064806F053F930B959
:102BD00008BDFFF749FDF1E7FFF746FDF3E7FFF713
:102BE00043FDF5E77060002400540040DB3FB00077
:102BF00008B51248124B0360124B436000238360F8
:102C00000122C260036143618361C361036205F015
:102C100029FD50B90021094806F0FEF840B900210D
:102C2000064806F027F930B908BDFFF71DFDF1E7AA
:102C3000FFF71AFDF3E7FFF717FDF5E7BC60002487
:102C400000580040DB3FB00030B5B9B00446002169
:102C500033913491359136913791BC2204A808F014
:102C600083FC2368464A934204D0464A934244D0A8
:102C700039B030BD0823049304A802F0F1F900280C
:102C800038D1414CD4F8E03043F00203C4F8E030CE
:102C9000D4F8E03003F002030093009B4FF440733C
:102CA000339312233493012335930025369504235F
:102CB000379333A9354803F0D1FED4F8E83043F414
:102CC0000013C4F8E830D4F8E83003F4001301939B
:102CD000019B2A4629461F2005F0B4FB1F2005F062
:102CE000E7FB2A462946202005F0ACFB202005F012
:102CF000DFFBBDE7FFF7B8FCC3E70823049304A894
:102D000002F0AEF9002837D11F4DD5F8E03043F07E
:102D10000203C5F8E030D5F8E03003F00203029377
:102D2000029B4FF440633393122334930024359471
:102D300036940423379333A9144803F08FFED5F853
:102D4000E83043F48003C5F8E830D5F8E83003F400
:102D500080030393039B22462146212005F072FB4A
:102D6000212005F0A5FB22462146222005F06AFB22
:102D7000222005F09DFB7BE7FFF776FCC4E700BF50
:102D8000005400400058004000440258000402581B
:102D900000B587B000230193029303930493059336
:102DA000264BD3F8E82042F00102C3F8E820D3F81C
:102DB000E83003F001030093009B214BDA68C2F373
:102DC0000222C2F10703042B28BF04231946131D56
:102DD000062B31D9033A4FF0FF338B40DB4303F02E
:102DE0000D0393401B01DBB2164A82F81C334FF0EF
:102DF00080531360EF23ADF8043000230293652263
:102E00000392049301A94FF0804006F081FF4FF038
:102E100080431A6822F080021A6099680A4A0A40C0
:102E20009A605A6822F070025A609A6822F0800212
:102E30009A6007B05DF804FB0022CCE7004402581A
:102E400000ED00E000E100E0F8BFFEFF00B58DB04E
:102E50002422002103A808F087FB0023009301939C
:102E600002931348134A0260436083604FF6FF7277
:102E7000C2600361836103230393012205920A2345
:102E8000079309920B9303A906F04CFB50B900235A
:102E9000009302936946064806F0A2FE28B90DB0D9
:102EA0005DF804FBFFF7E0FBF1E7FFF7DDFBF6E77A
:102EB000A06100240008004000B589B000230493FD
:102EC0000593069307930193029303931448154ABD
:102ED0000260F0224260836042F21072C2600361BD
:102EE000836106F0BFFA90B94FF48053049304A9AC
:102EF0000B4806F05DFC68B900230193039301A918
:102F0000074806F06DFE40B909B05DF804FBFFF715
:102F1000ABFBE9E7FFF7A8FBEEE7FFF7A5FBF3E75D
:102F2000EC610024000C004000B58DB0242200218B
:102F300003A808F019FB002300930193029315489E
:102F4000154A0260436083604FF6FF72C2600361FE
:102F500043618023836103230393012205920A23A3
:102F6000079309920B9303A906F0DCFA58B90023E2
:102F70000093019302936946064806F031FE28B992
:102F80000DB05DF804FBFFF76FFBF0E7FFF76CFB9C
:102F9000F6E700BF386200240004014000B58BB0A2
:102FA0000023059306930793089309930368284A1F
:102FB000934205D0274A934225D00BB05DF804FB1D
:102FC000254BD3F8E82042F00402C3F8E820D3F8F8
:102FD000E82002F004020192019AD3F8E02042F0C6
:102FE0000202C3F8E020D3F8E03003F002030293BA
:102FF000029BC023059302230693099305A9174852
:1030000003F02CFDD9E7144BD3F8F02042F0020274
:10301000C3F8F020D3F8F02002F002020392039AE2
:10302000D3F8E02042F00402C3F8E020D3F8E03007
:1030300003F004030493049BC02305930223069327
:103040000323099305A9064803F008FDB5E700BF6F
:1030500000080040000401400044025800040258E7
:103060000008025800B585B003681F4A934208D093
:103070001E4A93421BD01E4A934226D005B05DF8EB
:1030800004FB1C4BD3F8E82042F00802C3F8E82008
:10309000D3F8E83003F008030193019B00220F21CD
:1030A000322005F0CFF9322005F002FAE6E7114BA5
:1030B000D3F8E82042F04002C3F8E820D3F8E83023
:1030C00003F040030293029BD8E70A4BD3F8F020A9
:1030D00042F48032C3F8F020D3F8F03003F48033A8
:1030E0000393039BCAE700BF000C00400018004098
:1030F000004001400044025800B589B0002303930A
:10310000049305930693079303681C4A934205D0E2
:103110001B4A93421AD009B05DF804FB194BD3F84F
:10312000E02042F00202C3F8E020D3F8E03003F0E0
:1031300002030193019B4FF4404303930223049342
:10314000079303A9104803F089FCE4E70D4BD3F87B
:10315000E02042F01002C3F8E020D3F8E03003F0A2
:1031600010030293029B602303930223049304231E
:10317000079303A9054803F071FCCCE70018004051
:103180000040014000440258000402580010025858
:1031900000B58DB00023089309930A930B93019314
:1031A0000293039304930593069307932048214ABF
:1031B00002600322426083604FF47A72C26003614E
:1031C000836106F04FF918BB4FF48053089308A9A8
:1031D000174806F0EDFAF0B9154806F073F9E8B9AA
:1031E00060230193002202920392059201A91048E4
:1031F00006F03CFAA8B904220DEB02010C4806F0D7
:1032000035FA88B90A48FFF777FF0DB05DF804FB7F
:10321000FFF72AFAD8E7FFF727FADDE7FFF724FAE6
:10322000DEE7FFF721FAE6E7FFF71EFAEAE700BF5D
:10323000086100240018004010B59AB000241694CC
:103240001794189419941394149415940C940D9441
:103250000E940F941094119412942C22214601A8DC
:1032600008F082F93248334B0360032343608460E3
:103270004FF47A73C36004614461846106F0F2F82C
:1032800000283FD14FF48053169316A9284806F022
:103290008FFA002839D1264806F014F9002837D1D2
:1032A00000231393159313A9214806F099FC0028D5
:1032B00031D160230C9300220D920E920F92109246
:1032C000119212920CA91A4806F0D0F930BB0422D0
:1032D0000CA9174806F0CAF918BB00230193029302
:1032E0000393049305934FF40052069207930B93B4
:1032F00001A90F4806F0C0FCB0B90D48FFF7FCFE6D
:103300001AB010BDFFF7B0F9BCE7FFF7ADF9C2E79F
:10331000FFF7AAF9C4E7FFF7A7F9CAE7FFF7A4F98F
:10332000D5E7FFF7A1F9D8E7FFF79EF9E5E700BF7A
:10333000546100240040014008B51748174B036052
:103340004FF4E123436000238360C36003610C22D8
:1033500042618361C36103624362836207F0A3FC3D
:1033600070B900210C4807F087FD60B900210A48B8
:1033700007F0A7FD50B9084807F05FFD48B908BD40
:10338000FFF772F9EDE7FFF76FF9EFE7FFF76CF979
:10339000F1E7FFF769F9F2E77463002400440040A5
:1033A00030B5B7B004460021319132913391349158
:1033B0003591BC2202A808F0D7F82268374B9A4210
:1033C00001D037B030BD0223029302A801F048FEBD
:1033D00000285AD1324BD3F8E82042F40032C3F827
:1033E000E820D3F8E82002F400320092009AD3F8E3
:1033F000E02042F00802C3F8E020D3F8E03003F008
:1034000008030193019B602331930223329300252B
:10341000339534950723359331A9224803F01EFBD9
:103420002148224B03602B2343608560C5604FF425
:103430008063036145618561C5610562456203F092
:103440002FFE28BB184BE3679C631948194B036098
:103450002C234360402383600023C3604FF48062C9
:10346000026143618361C3610362436203F018FE3A
:1034700088B90F4BA3679C6300221146262004F0F5
:10348000E1FF262005F014F89BE7FFF7EDF8A1E730
:10349000FFF7EAF8D6E7FFF7E7F8EAE7004400406D
:1034A00000440258000C02588462002428000240A4
:1034B000FC620024400002407047FEE7FEE7FEE7A2
:1034C000FEE770477047704708B505F069F808BD1A
:1034D00008B5024804F0DAFB08BD00BFF85F00241D
:1034E00008B5024804F0D2FB08BD00BF8462002486
:1034F00008B5024804F0CAFB08BD00BFFC62002406
:10350000084A1368013313604FF080431B6913F0BE
:10351000020F05D04FF080436FF002021A61F3E70B
:10352000704700BF0464002408B5024805F0F8F8AD
:1035300008BD00BF7060002408B5024805F02AFCF1
:1035400008BD00BF7060002408B5024805F0E8F827
:1035500008BD00BFBC60002408B5024805F01AFC95
:1035600008BD00BFBC60002408B5024806F034FD69
:1035700008BD00BF7463002408B5024805F022FEB0
:1035800008BD00BFEC610024014B1868704700BF04
:103590000464002482B0074BD3F8F42042F0020206
:1035A000C3F8F420D3F8F43003F002030193019B35
:1035B00002B0704700440258184AD2F8883043F4E9
:1035C0007003C2F88830164B1A6842F001021A6084
:1035D00000221A6118681349014019609A61DA6182
:1035E0001A629A62DA621A635A639A63DA631A6435
:1035F0005A64196821F4802119601A660A4B1A6806
:103600000A4B1340B3F1005F03D2094B0122C3F808
:103610000821024B4FF000629A60704700ED00E015
:10362000004402587FEDF6EA0010005C0000FFFF46
:10363000008000517047704708B5806BFFF7FBFFB3
:1036400008BD704708B50346806B426D12F0500FFD
:1036500030D1436D43F40073436503681A6812F078
:10366000080F14D0DA6812F4406F20D1DB6813F42D
:10367000005F1CD1436D23F480734365436D13F4E5
:10368000805F14D1436D43F0010343650FE0DB68B5
:1036900013F0030F0BD1436D23F480734365436D27
:1036A00013F4805F03D1436D43F001034365FFF7DB
:1036B000C1FF08BD426D12F0100F04D1C26CD26C74
:1036C00018469047F5E7FFF7BCFFF2E708B5806BB7
:1036D000436D43F040034365836D43F0040383650A
:1036E000FFF7AFFF08BD0000F0B583B000220192E4
:1036F00090F85020012A00F055820346012280F8FC
:1037000050200068826812F0040F09D05A6D42F010
:1037100020025A650120002283F8502003B0F0BD3A
:103720000A68C2F31304002C4ED1C2F38462012450
:103730009440C2692243C2611D684C683035220A38
:10374000920002F00C02A85804F01F0E1F2404FA85
:103750000EF420EA04000C68C4F3846C0CFA0EFC2E
:1037600040EA0C00A8501C68A26812F0040200D0C5
:103770000122A06810F0080000D0012002432FD0E1
:103780001868826812F0010F40F008820A68CD685C
:10379000D0F8C040C2F3130624EA060405F0180C62
:1037A000B24D25FA0CF52A40C2F313022243C0F8A9
:1037B000C020C868AE4A904200F0B0800A68002A73
:1037C000C0F26B810020A6E792FAA2F232B1B2FAFF
:1037D00082F202F01F0201249440AAE72022F8E7B7
:1037E0000F688D681434780E800000F004002658AD
:1037F000C7F3045E4FF0070C0CFA0EFC26EA0C0C23
:1038000005FA0EF54CEA050525509A48006800F0C7
:103810007040B0F1805F0BD01C68E06810F0100FB2
:1038200039D14869E468C4F382046400A04006E02A
:1038300048691C68E468C4F382046400A0400D6910
:10384000042D36D01F680E68603757F8254004F005
:10385000004406F0F8463043204347F82500186836
:103860000E694C7E012C1ED01546603050F8264063
:1038700024F000442C4340F826401D680C69087E63
:10388000012813D0286920F4F04004F01F04A2405E
:1038900002432A6174E74869E468A40804F0040458
:1038A0006400A040CBE74FF00045DEE74FF4006234
:1038B000E8E71868026E02F0F8420C68B2EB846F19
:1038C0001DD01868426E02F0F8420C68B2EB846FAB
:1038D0001AD01868826E02F0F8420C68B2EB846F5E
:1038E00017D01868C26E02F0F8420C68B2EB846F11
:1038F0007FF446AFC26E22F00042C26640E7026E1D
:1039000022F000420266DCE7426E22F0004242668C
:10391000DFE7826E22F000428266E2E71C680A68F6
:10392000C2F31305002D34D1900E013000F01F00BA
:1039300009288CBF00200120002861D0002D37D13C
:10394000900E0130800600F0F840002D3CD1960E1C
:10395000013606F01F070126BE403043002D41D13D
:10396000920E013202F01F0202EB420212050243E4
:1039700088681434550EAD0005F004056659C2F38D
:1039800004520727974026EA0706904030436051CB
:1039900014E792FAA2F048B1B0FA80F0013000F0DA
:1039A0001F0009288CBF00200120C5E72020F5E773
:1039B00092FAA2F030B1B0FA80F00130800600F047
:1039C000F840C2E72020F8E792FAA2F646B1B6FA2C
:1039D00086F6013606F01F06012707FA06F6BCE751
:1039E0002026F6E792FAA2F242B1B2FA82F201324E
:1039F00002F01F0202EB42021205B8E72022F6E7AE
:103A0000CDB9900E0130800600F0F840FDB9960E59
:103A1000013606F01F070126BE40304365BB920EFB
:103A2000013202F01F0202EB42021E3A120542F07E
:103A3000007202439CE792FAA2F030B1B0FA80F033
:103A40000130800600F0F840E0E72020F8E792FA25
:103A5000A2F646B1B6FA86F6013606F01F06012731
:103A600007FA06F6D9E72026F6E700BFFFFF0F00AA
:103A70000000FF470010005C92FAA2F25AB1B2FABD
:103A800082F2013202F01F0202EB42021E3A1205DC
:103A900042F00072CDE72022F3E719684248434C18
:103AA000A14218BF81420CBF0120002021D1404E0D
:103AB000B56805F0E077F0B13B48806810F0010090
:103AC00000D00120394CA46814F0010400D0012476
:103AD00020430CBF01200020002859D035488242E5
:103AE00012D03548824231D0344882423FD0002043
:103AF00011E6334EDCE73348806810F0010000D057
:103B0000012080F00100E7E715F4000FE9D12D4A0C
:103B1000914201D00020FEE547F40002B16821F097
:103B2000E0710A43B260284A126892092749A1FB52
:103B30000212920901325200019202E0019A013A06
:103B40000192019A002AF9D10020E4E515F0807F66
:103B5000CAD11C4A914201D00020DCE547F08072B6
:103B6000B16821F0E0710A43B2600020D3E515F49A
:103B7000800F15D1134A914201D00020CBE547F4C4
:103B80008002B16821F0E0710A43B2600020C2E512
:103B90005A6D42F020025A650120BCE50020BAE5CA
:103BA0000020B8E50220B9E50020024000210240D3
:103BB00000230240000084CB000052C70000B8CFB1
:103BC000006302580060025838000024632D3E054F
:103BD00038B503689A6812F0010F56D10446996807
:103BE0002B4A114209D0436D43F010034365836DA6
:103BF00043F001038365012048E09968254A0A40A3
:103C000042F001029A6004F0D7FC0546236822497D
:103C1000224A934218BF8B420DD102F5007292687E
:103C200002F01F021D498B4207D01946994207D066
:103C300032B100202AE01A4AF1E7A1F58071F5E7D8
:103C400023681A6812F0010F1DD19A6812F0010F53
:103C500005D199680F4A0A4042F001029A6004F0C7
:103C6000ABFC401B0228EBD923681B6813F0010F43
:103C7000E6D1636D43F010036365A36D43F0010368
:103C8000A365012002E0002000E0002038BD00BF55
:103C90003F000080C0FFFF7F002002400021024063
:103CA00000630258F8B504460E46174600683D4AC0
:103CB0003D4B984218BF90421AD103F500739D689E
:103CC00005F01F05806810F0040F67D194F850309C
:103CD000012B65D0012384F85030052D18BF002D2D
:103CE00008D0092D06D0002384F85030012056E07A
:103CF0002E4BE4E72046FFF76BFF00284AD1626DA8
:103D0000A0F60273134043F4807363652368264A68
:103D1000934239D01A46934200D01DB9636D23F403
:103D200080136365636D13F4805F30D0A36D23F05F
:103D30000603A365E36C1E4ADA63E36C1D4A1A644A
:103D4000E36C1D4ADA6423681C221A60002384F89D
:103D500050302268536843F0100353602168E36ACF
:103D6000CA6822F003021343CB6021683B46324607
:103D70004031E06C03F066FB226891680F4B0B400A
:103D800043F0040393600AE0A2F58072C3E70023C6
:103D9000A365CFE7002384F8503000E00220F8BD8F
:103DA0000220FCE70020024000210240006302588C
:103DB0004536000839360008CD360008C0FFFF7FC1
:103DC00038B5044603684F494F4A934218BF8B42A7
:103DD00023D14E4B9B6813F4403F14BF01230023B3
:103DE0004BB300F0EBFF05466368B3F5003F1CD012
:103DF000B3F5403F1DD0B3F5803F16D004F0E2FB91
:103E000041F20303984257D8414B9D424ED9226854
:103E1000936843F48073936038BD3E4B9B6813F402
:103E2000403F14BF01230023DAE71B0CB5FBF3F579
:103E3000E4E78508E2E74FF4002002F0F9F80546D0
:103E40006368B3F5101F2DD022D8B3F5E01F27D03B
:103E500004D9B3F5001FD1D14509CFE7B3F5801FD1
:103E60000DD006D9B3F5A01F09D0B3F5C01F06D0F9
:103E7000C4E7B3F5002F02D0B3F5402F04D19B0C5B
:103E80005B00B5FBF3F5B9E7B3F5802FF7D0B5E7E5
:103E9000B3F5201F08D0B3F5301FAFD1050AADE749
:103EA0000509ABE78509A9E7C509A7E72268936873
:103EB00023F480739360AFE7174B9D4205D82268C7
:103EC000936823F440739360A6E7144B9D4207D890
:103ED0002268936823F4407343F4807393609BE7F4
:103EE0000F4B9D4207D82268936823F4407343F434
:103EF0000073936090E72268936843F44073936083
:103F00008AE700BF00200240002102400023024057
:103F1000002D31010063025821BCBE0041787D01B3
:103F200081F0FA0230B583B000230193002800F03D
:103F300010810446436DEBB123689A6812F0005F6C
:103F400003D09968844A0A409A6023689A6812F0FC
:103F5000805F1CD19968814A0A4042F080529A6081
:103F60007F4B1B689B097F4AA2FB03239B090133FC
:103F7000019309E0FEF74CFD0023A36584F850305F
:103F8000DAE7019B013B0193019B002BF9D12268E9
:103F9000936813F0805F40F09C80636D43F01003E2
:103FA0006365A36D43F00103A3650125936813F0D6
:103FB000040300D00123616D11F0100F40F0C180A7
:103FC000002B40F0BE80636D23F4817343F0020345
:103FD0006365936813F0010F21D16349634B9A42E3
:103FE00018BF8A420CBF0122002274D18B6813F0E3
:103FF000010300D001235D49896811F0010100D05F
:1040000001210B430CBF0123002343B1002A6BD0D5
:10401000574963688A6822F47C1213438B6004F06A
:10402000D1FA41F20303984202D9A368102B5DD064
:10403000627D236B43EA4233A2681343227F43EA43
:104040000243227F012A5CD0626A22B102F47872B4
:10405000A16A0A4313432168C868464A02401343D1
:10406000CB6021688B6813F0040300D001238A68B9
:1040700012F0080200D0012213431BD1227DE36A13
:1040800043EA8232C8683C4B03401343CB6094F848
:104090003830012B3AD02268136923F001031361F1
:1040A0002268136923F07043616B0B431361204650
:1040B000FFF786FEE368012B3AD02268136B23F0EA
:1040C0000F031363636D23F0030343F00103636580
:1040D0003CE000256AE7294B9B6813F0010300D000
:1040E000012383F0010390E7254992E7617D226B6C
:1040F00042EA41321343227F43EA024343F00C0376
:104100009FE7226A013A43EA42439DE72068026939
:104110001C4B1340E26B511E226C42EA0142616C5F
:104120000A43A16C0A43134343F001030361B7E759
:1041300021680B6B23F00F03A269013A13430B6351
:10414000C0E7636D43F0100363650125284603B0A3
:1041500030BD0125FAE700BFC0FFFF5FC0FFFF6F62
:1041600038000024632D3E0500200240002102405B
:104170000023024003C0F0FFFCBFFFFF00600258B5
:10418000006302581EF800FC90F85020012A00F04D
:10419000A18030B49AB00346012280F8502000225A
:1041A0001692179200684C4A904242D00022019227
:1041B000019A002A41D0926812F0040200D0012234
:1041C000846814F0040F76D1002A74D1424C434A1B
:1041D000904218BFA04239D102F500720868002849
:1041E0003FD0906820F440404C68204390601868AD
:1041F000394D3A4CA04218BFA84229D1A86810F006
:10420000010000D00120354CA46814F0010400D056
:10421000012420430CBF01200020002856D09468C0
:104220002F4820400C688968214308439060002093
:1042300046E002F580720192BAE75A6D42F0200220
:104240005A65002283F8502001203CE0254AC5E74A
:104250002548806810F0010000D0012080F00100A6
:10426000DBE7916821F44041916019681A4C1B48C2
:10427000814218BFA14215D1A16811F0010100D0FF
:1042800001211648806810F0010000D00120014390
:104290000CBF01210021D9B1906811490140916002
:1042A00000200DE01049896811F0010100D00121C2
:1042B00081F00101EFE75A6D42F020025A650120BA
:1042C000002283F850201AB030BC70470020F7E776
:1042D0000020F5E702207047002002400021024044
:1042E000E0F0FFFF0063025800600258002800F071
:1042F000028338B50446036813F0010F25D09C4AA9
:10430000136903F03803926A102B15D0182B0FD0C5
:104310006368B3F5803F3FD0002B53D1944B1A68AC
:1043200022F480321A601A6822F480221A6038E07F
:1043300002F00302022AEBD18D4B1B6813F4003FFD
:1043400003D06368002B00F0D882236813F0020FBB
:1043500000F08B80864A1369926A13F038035AD0B2
:10436000182B55D0E368002B00F0C88080490A68FC
:1043700022F0190213430B6004F01EF905467C4B32
:104380001B6813F0040F40F0978004F015F9401BF0
:104390000228F4D90320B7E2754A136843F4803346
:1043A000136063682BB304F007F90546704B1B6874
:1043B00013F4003FC9D104F0FFF8401B6428F5D97D
:1043C0000320A1E2B3F5A02F09D0694B1A6822F4AB
:1043D00080321A601A6822F480221A60E1E7644B86
:1043E0001A6842F480221A601A6842F480321A6015
:1043F000D7E704F0E1F805465D4B1B6813F4003F76
:10440000A3D004F0D9F8401B6428F5D903207BE23F
:1044100012F0030FA6D1564B1B6813F0040F03D004
:10442000E368002B00F06B8204F0CCF841F2030348
:10443000984212D82269402A07D04D494B6823F48C
:104440007C3343EA02334B600FE0494A536823F45C
:104450007C3343F40033536007E0454A536823F04C
:10446000FE43216943EA01635360236813F0100F90
:1044700000F088803E4A136903F03803926A082BE3
:1044800054D0182B4ED0E369002B00F0B880384A86
:10449000136843F08003136004F08EF80546344B34
:1044A0001B6813F4807F40F0888004F085F8401B7F
:1044B0000228F4D9032027E204F084F841F2030330
:1044C000984212D82269402A07D029494B6823F420
:1044D0007C3343EA02334B60C7E7254A536823F431
:1044E0007C3343F400335360BFE7214A536823F021
:1044F000FE43216943EA01635360B6E71C4A13682F
:1045000023F00103136004F057F80546184B1B68AD
:1045100013F0040FA9D004F04FF8401B0228F5D97E
:104520000320F1E102F00302012AACD1104B1B6819
:1045300013F4807F03D0E369802B40F0E28104F024
:1045400041F841F20303984214D8226A202A07D086
:1045500007494B6823F0F84343EA82634B6011E05C
:10456000034A536823F0F84343F08043536009E063
:10457000004402589A4AD36823F07C53216A43EAE4
:104580000163D360236813F0080F60D06369002BC8
:1045900049D0934A536F43F00103536704F00CF87A
:1045A00005468F4B5B6F13F0020F50D104F004F8F7
:1045B000401B0228F5D90320A6E104F003F841F2DC
:1045C0000303984212D8226A202A07D084494B68F4
:1045D00023F0F84343EA82634B60D3E7804A536891
:1045E00023F0F84343F080435360CBE77C4AD36821
:1045F00023F07C53216A43EA0163D360C2E7784A1F
:10460000136823F08003136003F0D6FF0546744B54
:104610001B6813F4807FB5D003F0CEFF401B022847
:10462000F5D9032070E16E4A536F23F001035367FD
:1046300003F0C2FF05466A4B5B6F13F0020F06D012
:1046400003F0BAFF401B0228F5D903205CE1236880
:1046500013F0200F29D0A3699BB1614A136843F47A
:104660008053136003F0A8FF05465D4B1B6813F4ED
:10467000005F1AD103F0A0FF401B0228F5D90320E8
:1046800042E1574A136823F48053136003F094FF08
:104690000546534B1B6813F4005F06D003F08CFFF4
:1046A000401B0228F5D903202EE1236813F0040FE4
:1046B00021D1636A002B00F02681494A126902F079
:1046C0003802182A00F0EE80022B75D0444A136895
:1046D00023F08073136003F06FFF0446404B1B68A8
:1046E00013F0007F00F0DC8003F066FF001B02285F
:1046F000F4D9032008E13B4A136843F48073136044
:1047000003F05AFF0546374B1B6813F4807F06D130
:1047100003F052FF401B6428F5D90320F4E0A3689E
:10472000012B0AD00BBB2E4B1A6F22F001021A6725
:104730001A6F22F004021A6704E0294A136F43F04B
:1047400001031367A36833B303F036FF0546244B18
:104750001B6F13F0020FACD103F02EFF401B41F290
:1047600088339842F3D90320CEE0052B09D01C4BA7
:104770001A6F22F001021A671A6F22F004021A67F8
:10478000E0E7174B1A6F42F004021A671A6F42F003
:1047900001021A67D6E703F00FFF0546104B1B6FA7
:1047A00013F0020F85D003F007FF401B41F288335E
:1047B0009842F3D90320A7E0094A136823F08073D5
:1047C000136003F0F9FE0546054B1B6813F0007FEC
:1047D0000AD003F0F1FE401B0228F5D9032093E034
:1047E00000440258004802584F4B996A4F4A0A4009
:1047F000A16AE06A41EA00110A439A62226B013A17
:10480000C2F30802616B0139490289B20A43A16B04
:104810000139090401F4FE010A43E16B013909067B
:1048200001F0FE410A431A63DA6A22F00102DA62F9
:10483000596B3F4A0A40A16C42EAC1025A63DA6AE4
:1048400022F00C02216C0A43DA62DA6A22F00202D8
:10485000616C0A43DA62DA6A42F48032DA62DA6A56
:1048600042F40032DA62DA6A42F48022DA62DA6A08
:1048700042F00102DA621A6842F080721A6003F0B4
:104880009BFE0446284B1B6813F0007F06D103F003
:1048900093FE001B0228F5D9032035E0002033E009
:1048A000002031E0204A916A106B012B2DD001F0DD
:1048B0000303A26A93422AD1C1F30511E36A994224
:1048C00027D1C0F30802236B013B9A4223D1C0F3E6
:1048D0004622636B013B9A421FD1C0F30642A36B91
:1048E000013B9A421BD1C0F30660E36B013B984247
:1048F00017D1002008E001207047012004E00120CA
:1049000002E0012000E0002038BD0120FCE701208A
:10491000FAE70120F8E70120F6E70120F4E701209B
:10492000F2E70120F0E700BF004402580CFCFFFF53
:104930000700FFFF744B1B6903F03803102B00F0D6
:10494000DE80182B10D00BB1704870476E4B1B687F
:1049500013F0200F00F0D5806B4B1868C0F3C10036
:104960006B4B23FA00F0704710B4674A916A01F06C
:104970000301946AC4F30510D36A03F0010C536B6E
:10498000C3F3CC030CFB03F307EE903AF8EE677A1F
:1049900014F47C7F00F09380012965D0022900F097
:1049A0009180E1B107EE100AF8EE476A9FED596A6F
:1049B00086EE267A544B1B6BC3F3080306EE903A3F
:1049C000F8EE666A9FED546A67EE867A76EEA77A0D
:1049D000F7EE006A77EEA67A27EE277A60E0136892
:1049E00013F0200F23D011461268C2F3C102484BC6
:1049F000D34007EE103AF8EE476A07EE100AB8EE19
:104A0000476A86EE867A0B6BC3F3080306EE903A8C
:104A1000F8EE666A9FED406A67EE867A76EEA77AD0
:104A2000F7EE006A77EEA67A27EE277A38E007EEEF
:104A3000100AF8EE476A9FED396A86EE267A324B05
:104A40001B6BC3F3080306EE903AF8EE666A9FED1F
:104A5000326A67EE867A76EEA77AF7EE006A77EE2C
:104A6000A67A27EE277A1BE007EE100AF8EE476ACF
:104A70009FED286A86EE267A234B1B6BC3F308034F
:104A800006EE903AF8EE666A9FED236A67EE867A44
:104A900076EEA77AF7EE006A77EEA67A27EE277A07
:104AA000194B1B6BC3F34623013307EE903AF8EE24
:104AB000677AC7EE276AFCEEE67A17EE900A5DF891
:104AC000044B704707EE100AF8EE476A9FED146A30
:104AD00086EE267A0C4B1B6BC3F3080306EE903A66
:104AE000F8EE666A9FED0C6A67EE867A76EEA77A34
:104AF000F7EE006A77EEA67A27EE277AD0E7094824
:104B000070470348704700BF0044025800093D0049
:104B10000090D0030024744A000000390024744C33
:104B20000024744B0024F400002800F0328170B59A
:104B30000D4604469B4B1B6803F00F038B420BD2C0
:104B4000984A136823F00F030B431360136803F0B4
:104B50000F038B4240F01F81236813F0040F0CD029
:104B60002269914B9B6903F070039A4205D98E49E3
:104B70008B6923F070031A438A61236813F0080FCE
:104B80000CD06269884BDB6903F070039A4205D947
:104B90008549CB6923F070031A43CA61236813F077
:104BA000100F0CD0A269804BDB6903F4E0639A42DA
:104BB00005D97D49CB6923F4E0631A43CA612368B0
:104BC00013F0200F0CD0E269774B1B6A03F07003DF
:104BD0009A4205D974490B6A23F070031A430A629A
:104BE000236813F0020F0CD0E2686F4B9B6903F04F
:104BF0000F039A4205D96C498B6923F00F031A43BE
:104C00008A61236813F0010F41D0674A936923F446
:104C10007063A1680B4393616368022B0AD0032B76
:104C200027D0012B2CD0604A126812F0040F06D155
:104C30000120ADE0126812F4003F00F0AE805A4946
:104C40000A6922F0070213430B6103F0B5FC064624
:104C5000554B1B6903F038036268B3EBC20F16D0E3
:104C600003F0AAFC801B41F288339842F0D903205C
:104C70008EE04D4A126812F0007FE0D1012087E0FB
:104C8000494A126812F4807FD9D1012080E023685C
:104C900013F0020F0CD0E268434B9B6903F00F0343
:104CA0009A4205D240498B6923F00F031A438A6167
:104CB0003C4B1B6803F00F03AB420AD9394A136817
:104CC00023F00F032B431360136803F00F03AB4271
:104CD00065D1236813F0040F0CD02269324B9B6915
:104CE00003F070039A4205D22F498B6923F07003B9
:104CF0001A438A61236813F0080F0CD062692A4BAB
:104D0000DB6903F070039A4205D22749CB6923F08F
:104D100070031A43CA61236813F0100F0CD0A26904
:104D2000214BDB6903F4E0639A4205D21E49CB694B
:104D300023F4E0631A43CA61236813F0200F0CD0F8
:104D4000E269194B1B6A03F070039A4205D21649B7
:104D50000B6A23F070031A430A62FFF7EBFD124956
:104D60008B69C3F30323114AD35C03F01F03D840BC
:104D70008B6903F00F03D35C03F01F0320FA03F3E6
:104D80000B4A13600B4B18600B4B186803F0B2FB17
:104D900070BD012070470120FAE70120F8E70120EB
:104DA000F6E700BF0020005200440258F4F5000866
:104DB0003C000024380000244400002408B5FFF71C
:104DC000B9FD0B4A9369C3F303230A49CB5C03F093
:104DD0001F0320FA03F3926902F00F02885C00F0CF
:104DE0001F0023FA00F0044A1060044A136008BD53
:104DF00000440258F4F500083C0000243800002468
:104E000008B5FFF7DBFF054BDB69C3F30213044A68
:104E1000D35C03F01F03D84008BD00BF0044025814
:104E2000F4F5000808B5FFF7C9FF054BDB69C3F3CC
:104E30000223044AD35C03F01F03D84008BD00BF1F
:104E400000440258F4F50008404B9B6A03F003034A
:104E5000032B79D070B505460E463C4A136823F003
:104E60008063136003F0A8FB0446384B1B6813F003
:104E7000006F06D003F0A0FB031B022BF5D9032023
:104E800070BD324B9A6A22F47C32296842EA0132C0
:104E90009A626A68013AC2F30802A96801394902B4
:104EA00089B20A43E9680139090401F4FE010A43A1
:104EB00029690139090601F0FE410A439A63DA6A59
:104EC00022F0C00269690A43DA62DA6A22F020023B
:104ED000A9690A43DA62DA6A22F01002DA62D96B4F
:104EE0001B4A0A40E96942EAC102DA63DA6A42F01F
:104EF0001002DA62C6B91A46DB6A43F40023D362B1
:104F0000124A136843F08063136003F055FB0446B4
:104F10000E4B1B6813F0006F14D103F04DFB001B08
:104F20000228F5D90320ABE7012E05D0074AD36A42
:104F300043F40013D362E3E7044AD36A43F48013D3
:104F4000D362DDE700209BE7012070470044025850
:104F50000700FFFF404B9B6A03F00303032B79D04C
:104F600070B505460E463C4A136823F08053136023
:104F700003F022FB0446384B1B6813F0005F06D099
:104F800003F01AFB031B022BF5D9032070BD324B33
:104F90009A6A22F07C72296842EA01529A626A682F
:104FA000013AC2F30802A9680139490289B20A43E9
:104FB000E9680139090401F4FE010A43296901394C
:104FC000090601F0FE410A431A64DA6A22F44062DB
:104FD00069690A43DA62DA6A22F40072A9690A434B
:104FE000DA62DA6A22F48072DA62596C1B4A0A4089
:104FF000E96942EAC1025A64DA6A42F48072DA620A
:10500000C6B91A46DB6A43F48003D362124A1368B6
:1050100043F08053136003F0CFFA04460E4B1B6835
:1050200013F0005F14D103F0C7FA001B0228F5D972
:105030000320ABE7012E05D0074AD36A43F0807303
:10504000D362E3E7044AD36A43F40003D362DDE7A3
:1050500000209BE701207047004402580700FFFF33
:10506000F8B50446036813F0006F30D0436EB3F513
:10507000001F26D00ED8EBB1B3F5801F07D1022157
:105080000430FFF7E1FE054645B12E4621E001263A
:1050900035461EE0B3F5401F09D10025954A136D32
:1050A00023F44013616E0B431365002611E00126C3
:1050B00035460EE08F4AD36A43F40033D3620025AD
:1050C000ECE702212430FFF745FF0546DCE7002628
:1050D0003546236813F4807F14D0636D042B30D8D9
:1050E000DFE803F0032228080800824AD36A43F469
:1050F0000033D36245BB7F4A136D23F00703616D14
:105100000B431365236813F4007F2FD0A36D802B0E
:1051100049D01ED8002B40D0402B17D10021201D94
:10512000FFF792FE054619E00021201DFFF78CFED7
:105130000546DFE7002104F12400FFF70BFF0546D9
:10514000D8E701263546DDE72E46DBE70126354662
:105150000CE0C02B02D0B3F5807F1BD155BB654A54
:10516000136D23F4E073A16D0B431365236813F4EF
:10517000806F45D0D4F8A430B3F5800F38D01ED856
:1051800083B3B3F5001F17D10021201DFFF75CFE8C
:1051900005461AE001263546E8E7564AD36A43F445
:1051A0000033D362DAE7002104F12400FFF7D2FED6
:1051B0000546D3E72E46D9E70126354620E0B3F56C
:1051C000C00F02D0B3F5000F09D1C5B9494A936D9C
:1051D00023F46003D4F8A4100B43936510E0012678
:1051E00035460DE0434AD36A43F40033D362ECE71B
:1051F000002104F12400FFF7ADFE0546E5E72E4649
:10520000236813F4006F23D0D4F8A830B3F1007FE3
:1052100041D00DD8002B38D0B3F1807F05D10021CB
:10522000201DFFF711FE054608E0012635460FE078
:10523000B3F1407F02D0B3F1806F23D1002D31D183
:105240002C4A936D23F0E063D4F8A8100B439365C8
:10525000236813F0007F2ED0A36C202B3FD026D8DC
:1052600033B1102B20D1234AD36A43F40033D362E5
:10527000002D3AD11F4AD36C23F03003A16C0B43AD
:10528000D36418E001263546E2E71A4AD36A43F4AC
:105290000033D362D2E7002104F12400FFF75AFE65
:1052A0000546CBE72E46D3E70126354603E0302BF3
:1052B000DED001263546236813F4805F2BD0E36DE2
:1052C000B3F5005F4CD017D8002B43D0B3F5805F07
:1052D0000DD10021201DFFF7B7FD054612E0022188
:1052E000201DFFF7B1FD0546C2E72E46E3E7012684
:1052F000354610E000440258B3F5405F02D0B3F5E4
:10530000804F24D1002D32D1754A136D23F4E04330
:10531000E16D0B431365236813F4005F37D0236EF0
:10532000B3F5003F51D027D83BB1B3F5803F20D132
:105330000121201DFFF788FD0546002D4CD1684A4C
:10534000136D23F4E023216E0B4313651FE0012648
:105350003546E0E7624AD36A43F40033D362D1E7CB
:10536000002104F12400FFF7F5FD0546CAE72E46AB
:10537000D1E7012635460AE0B3F5802FDDD0B3F53D
:10538000A02FDAD0B3F5403FD7D0012635462368A9
:1053900013F4804F30D0D4F8AC30B3F1005F44D078
:1053A0001FD83BB1B3F1805F18D10121201DFFF759
:1053B0004BFD0546002D3FD1494A936D23F0E04354
:1053C000D4F8AC100B43936516E0012104F12400DE
:1053D000FFF7C0FD0546B0E72E46D8E70126354663
:1053E0000AE0B3F1804FE5D0B3F1A04FE2D0B3F1C2
:1053F000405FDFD001263546236813F4004F09D003
:10540000E36EB3F1805F19D0B3F1005F24D0D3B164
:1054100001263546236813F0807F32D0636C032B5E
:1054200059D8DFE803F026215226012104F1240097
:10543000FFF790FD0546BDE72E46DDE7284AD36A13
:1054400043F40033D3626DB9254A136D23F0405302
:10545000E16E0B431365DDE70121201DFFF7F4FC2E
:105460000546F0E72E46D5E71D4AD36A43F40033DC
:10547000D3629DBB1A4AD36C23F00303616C0B43C8
:10548000D364236813F4800F2CD1236813F0010F29
:1054900000F0A380A36F282B00F29D80DFE803F0CB
:1054A0008B9B9B9B9B9B9B9B869B9B9B9B9B9B9B71
:1054B000949B9B9B9B9B9B9B8B9B9B9B9B9B9B9B53
:1054C0008B9B9B9B9B9B9B9B8B000221201DFFF733
:1054D000BBFC0546CDE701263546D2E72E46D0E790
:1054E000004402588F4A136843F48073136003F03A
:1054F00063F807468B4B1B6813F4807F05D103F0DC
:105500005BF8C01B6428F5D90325002D4AD1864BD2
:105510001B6FD4F8B020534013F4407F0CD0824B63
:105520001A6F22F44072196F41F480311967196FB4
:1055300021F4803119671A67D4F8B030B3F5807F51
:1055400015D08DBBD4F8B03003F44072B2F5407F73
:105550001ED0754A136923F47C53136172490B6F93
:10556000D4F8B020C2F30B0213430B678DE703F0AE
:1055700023F807466C4B1B6F13F0020FE1D103F0C9
:105580001BF8C01B41F288339842F3D90325D8E7B2
:105590006548026922F47C52644901EA13131343FB
:1055A0000361DBE72E4670E72E466EE70121201DE2
:1055B000FFF74AFC0546E5B95B4A536D23F0380313
:1055C000A16F0B43536508E0012104F12400FFF7AC
:1055D000C1FC0546EFE701263546236813F0020FAC
:1055E00016D0636F052B27D8DFE803F00A051F0AE2
:1055F0000A0A2E46F1E70121201DFFF725FC05468A
:10560000EDB9494A536D23F00703616F0B435365AE
:10561000236813F0040F22D0D4F89030052B43D820
:10562000DFE803F0140F3B141414012104F12400EB
:10563000FFF790FC0546E3E701263546E8E72E46EE
:10564000E6E70121201DFFF7FFFB05467DBB364A3B
:10565000936D23F00703D4F890100B4393652368F0
:1056600013F0200F33D0D4F88C30B3F1005F4CD05E
:1056700022D83BB1B3F1805F1BD10021201DFFF781
:10568000E3FB0546002D47D1274A536D23F0E04345
:10569000D4F88C100B43536519E0012104F1240068
:1056A000FFF758FC0546D1E701263546D7E72E46D9
:1056B000D5E7012635460AE0B3F1804FE2D0B3F1D9
:1056C000A04FDFD0B3F1405FDCD001263546236820
:1056D00013F0400F37D0D4F89830B3F5006F52D0A4
:1056E00026D83BB1B3F5806F18D10021201DFFF7FC
:1056F000ABFB0546002D4DD10B4A936D23F4E053CF
:10570000D4F898100B4393651DE0022104F12400A6
:10571000FFF720FC0546B5E72E46D8E701263546BB
:1057200011E000BF0048025800440258CFFFFF00BC
:10573000B3F5805FDED0B3F5A05FDBD0B3F5406F8B
:10574000D8D001263546236813F0800F32D0D4F824
:105750009C30B3F5804F00F09D8020D83BB1B3F56D
:10576000005F19D10021201DFFF76EFB0546002DBB
:1057700040F09780A54A936D23F46043D4F89C10C1
:105780000B43936516E0022104F12400FFF7E2FBCE
:105790000546AFE72E46D6E7012635460AE0B3F5C3
:1057A000004FE4D0B3F5204FE1D0B3F5C04FDED0C9
:1057B00001263546236813F0080F0CD0D4F880304A
:1057C000B3F5805F6FD0914A536D23F44053D4F802
:1057D00080100B435365236813F0100F0CD0D4F8DE
:1057E0009430B3F5807F67D0884A936D23F440737B
:1057F000D4F894100B439365236813F4002F0BD057
:10580000D4F8A030B3F5803F6ED0B3F5003F61D03F
:10581000002B5AD001263546236813F4802F0CD074
:10582000D4F88430B3F5001F76D0B3F5401F69D0AB
:10583000B3F5801F61D001263546236813F4803FFD
:1058400007D0E36C002B70D0B3F5803F7BD00126EE
:105850003546236813F0005F7DD1236813F4003FC1
:1058600000F08680E36FB3F5807F00F0C6807CD9BE
:10587000B3F5007F03D0B3F5407F40F0BC80002D2E
:1058800040F0C180614A536D23F44073E16F0B43D4
:1058900053656DE0022104F12400FFF75BFB054630
:1058A00065E72E4686E7022104F12400FFF752FB4C
:1058B000002888D0012686E7022104F12400FFF7A2
:1058C00049FB002890D001268EE70021201DFFF71C
:1058D000BBFA05467DB94D4A936D23F44033D4F8A5
:1058E000A0100B43936597E7022104F12400FFF712
:1058F00031FB0546EEE72E468EE7444AD36A43F471
:105900000033D3627DB9414A536D23F44013D4F878
:1059100084100B43536590E7012104F12400FFF745
:1059200019FB0546EEE72E4687E7384AD36A43F46B
:105930000033D3626DB9354AD36C23F48033E16C04
:105940000B43D36485E70221201DFFF77DFA05464E
:10595000F0E72E467DE7022104F12400FFF7FAFA72
:1059600000283FF47AAF012677E7002B87D0012685
:10597000236813F4801F06D0244A136D23F00043DC
:10598000216F0B431365236813F0805F07D01F4A14
:10599000136923F48043D4F8B4100B4313612368D4
:1059A00013F4001F06D0194A136D23F08073A16E03
:1059B0000B431365236813F0804F09D0134B1A690A
:1059C00022F400421A611A69D4F8B8100A431A6125
:1059D0002368002B1CDB236813F4000F07D00B4A4D
:1059E000536D23F44003D4F888100B43536506B17C
:1059F00001263046F8BD0126BAE7044AD36A43F4CB
:105A00000033D3623BE72E46B2E700BF00440258A2
:105A1000034AD36C23F04053216D0B43D364DAE780
:105A20000044025808B5FFF7C9F9054B1B6AC3F3D8
:105A30000213044AD35C03F01F03D84008BD00BF23
:105A400000440258F4F5000810B5774A916A946A48
:105A5000C4F3053ED36AC3F3001CD36BC3F3CC037A
:105A60000CFB03F314F47C3F00F0D88001F0030139
:105A700007EE903AF8EE677A012965D0022900F026
:105A8000B080E1B107EE10EAB8EE477A9FED676AA1
:105A9000C6EE076A644B9B6BC3F3080307EE103A2C
:105AA000B8EE477A9FED626A67EE867A77EE277ADC
:105AB000B7EE007A77EE877A66EEA76A60E0136841
:105AC00013F0200F23D011461268C2F3C102594BC4
:105AD000D34007EE103AB8EE477A06EE90EAB8EEF9
