:020000040800F2
:100000000000082491860008E9160008EB16000895
:10001000ED160008EF160008F116000800000000B9
:10002000000000000000000000000000F3160008BF
:10003000F516000800000000F7160008F916000881
:10004000E1860008E1860008E1860008E1860008F4
:10005000E1860008E1860008E1860008E1860008E4
:10006000E1860008E1860008E18600080117000823
:100070001117000821170008E1860008E186000832
:10008000E1860008E1860008E1860008E1860008B4
:10009000E1860008E1860008E1860008E1860008A4
:1000A000E1860008E1860008E1860008E186000894
:1000B00031170008E1860008E186000849170008AA
:1000C000591700086917000879170008E186000829
:1000D000E1860008E186000889170008E18600082B
:1000E000E1860008E186000800000000E1860008C3
:1000F000E1860008E1860008E1860008E186000844
:10010000E1860008E186000899170008E1860008EA
:10011000E1860008E1860008E1860008E186000823
:10012000E1860008E1860008E1860008E186000813
:10013000E1860008E1860008E1860008E186000803
:1001400000000000000000000000000000000000AF
:10015000E1860008E1860008E1860008E1860008E3
:10016000E1860008E1860008E1860008E1860008D3
:10017000E1860008E1860008E18600080000000032
:10018000E1860008E1860008E1860008E1860008B3
:10019000E1860008E1860008E1860008E1860008A3
:1001A000E1860008E1860008E1860008E186000893
:1001B000E1860008E1860008E1860008E186000883
:1001C000E1860008E1860008E1860008E186000873
:1001D000E1860008E1860008E1860008E186000863
:1001E000E1860008E1860008E1860008E186000853
:1001F000E1860008E1860008E1860008E186000843
:10020000E1860008E1860008E1860008E186000832
:10021000E1860008E1860008E1860008E186000822
:10022000E1860008E1860008E18600080000000081
:10023000E1860008E186000800000000E186000871
:10024000E1860008E1860008E1860008E1860008F2
:10025000E1860008E1860008E1860008E1860008E2
:10026000E1860008E1860008E1860008E1860008D2
:10027000E1860008E1860008E18600080000000031
:10028000E1860008E1860008E18600080000000021
:0802900000000000E1860008F7
:1002A00010B5054C237833B9044B13B10448AFF3B0
:1002B00000800123237010BDE00100240000000035
:1002C000C0B0000808B5034B1BB103490348AFF3A6
:1002D000008008BD00000000E4010024C0B0000858
:1002E000034613F8012B002AFBD1181A0138704776
:1002F00001F0FF01102A2BDB10F0070F08D010F8D7
:10030000013B013A8B422DD010F0070F42B3F6D1DA
:10031000F0B441EA012141EA014122F007047FF0F3
:1003200000070023F0E80256083C85EA010586EA4A
:10033000010685FA47F5A3FA87F586FA47F6A5FA86
:1003400087F68EB9EED1F0BC01F0FF0102F0070292
:1003500032B110F8013B013A83EA010313B1F8D13D
:100360000020704701387047002D06BF354603381E
:10037000073815F0010F07D1013015F4807F02BF57
:10038000013015F4C03F0130F0BC0138704700BFA8
:1003900053B94AB9002908BF00281CBF4FF0FF31EC
:1003A0004FF0FF3000F074B9ADF1080C6DE904CEE8
:1003B00000F006F8DDF804E0DDE9022304B0704740
:1003C0002DE9F047089D04468E46002B4DD18A4208
:1003D000944669D9B2FA82F252B101FA02F3C2F13B
:1003E000200120FA01F10CFA02FC41EA030E9440CC
:1003F0004FEA1C48210CBEFBF8F61FFA8CF708FBED
:1004000016E341EA034306FB07F199420AD91CEBC4
:10041000030306F1FF3080F01F81994240F21C81F6
:10042000023E63445B1AA4B2B3FBF8F008FB10333E
:1004300044EA034400FB07F7A7420AD91CEB040473
:1004400000F1FF3380F00A81A74240F20781644443
:10045000023840EA0640E41B00261DB1D4400023C8
:10046000C5E900433146BDE8F0878B4209D9002D2C
:1004700000F0EF800026C5E9000130463146BDE8B6
:10048000F087B3FA83F6002E4AD18B4202D3824220
:1004900000F2F980841A61EB030301209E46002DCF
:1004A000E0D0C5E9004EDDE702B9FFDEB2FA82F224
:1004B000002A40F09280A1EB0C014FEA1C471FFA82
:1004C0008CFE0126200CB1FBF7F307FB131140EA69
:1004D00001410EFB03F0884208D91CEB010103F136
:1004E000FF3802D2884200F2CB804346091AA4B2F8
:1004F000B1FBF7F007FB101144EA01440EFB00FECC
:10050000A64508D91CEB040400F1FF3102D2A64530
:1005100000F2BB800846A4EB0E0440EA03409CE7CF
:10052000C6F12007B34022FA07FC4CEA030C20FA7C
:1005300007F401FA06F31C43F9404FEA1C4900FA9C
:1005400006F3B1FBF9F8200C1FFA8CFE09FB181119
:1005500040EA014108FB0EF0884202FA06F20BD98C
:100560001CEB010108F1FF3A80F08880884240F2DC
:100570008580A8F102086144091AA4B2B1FBF9F020
:1005800009FB101144EA014100FB0EFE8E4508D91B
:100590001CEB010100F1FF346CD28E456AD90238A0
:1005A000614440EA0840A0FB0294A1EB0E01A14285
:1005B000C846A64656D353D05DB1B3EB080261EBF3
:1005C0000E0101FA07F722FA06F3F1401F43C5E9CD
:1005D000007100263146BDE8F087C2F12003D84003
:1005E0000CFA02FC21FA03F3914001434FEA1C4745
:1005F0001FFA8CFEB3FBF7F007FB10360B0C43EA37
:10060000064300FB0EF69E4204FA02F408D91CEBE6
:10061000030300F1FF382FD29E422DD902386344E4
:100620009B1B89B2B3FBF7F607FB163341EA034184
:1006300006FB0EF38B4208D91CEB010106F1FF38D3
:1006400016D28B4214D9023E6144C91A46EA0046CA
:1006500038E72E46284605E70646E3E61846F8E65C
:100660004B45A9D2B9EB020864EB0C0E0138A3E7A5
:100670004646EAE7204694E74046D1E7D0467BE786
:10068000023B614432E7304609E76444023842E7FE
:10069000704700BF10B5028883184FF0010C83F833
:1006A00068C06244114B83FB02435B114FF0640C42
:1006B0000CFB13231FFA83FC4288624512D09BB2C5
:1006C00000EB030E00228EF8682014248EF80440FC
:1006D000A0F800C0C3EB0313054800EB83030B60D5
:1006E000104610BD034B0B600120FAE71F85EB514C
:1006F000FC010024381A002402680D4B9A4200D0F5
:10070000704700B583B005F031FD0A4B186001A9B0
:100710000948FFF7BFFF14220199084807F08EFF30
:100720000221074804F078F803B05DF804FB00BF2D
:10073000004400404C1A00246C190024A81E002418
:100740000008025870B59CB04C22002109A807F09F
:10075000EDFF2022002101A807F0E8FF022005F0AC
:100760000FFC00230093224B9A6942F440429A61A5
:100770009B6903F4404300931E4BDA6A42F0010286
:10078000DA62DB6A03F001030093009B184B9B695C
:1007900013F4005FFAD00223099301220C92402443
:1007A0000D94129300251395042614963C2215925D
:1007B00016931022179218930C2319931A951B95D0
:1007C00009A801F04BFD3F230193032302930395F6
:1007D00008230493059406944FF4806307930894C8
:1007E00031460DEB060002F057F91CB070BD00BF9A
:1007F000004802580004005800B5B1B0BC220021E6
:1008000001A807F093FF4FF00043019301A802F005
:10081000DFFB31B05DF804FB38B505F06DFC03F08B
:10082000C9FEFFF78FFFFFF7E7FF00F043F800F086
:100830009FFA00F0FFF800F017FE00F095FE00F0C0
:10084000BFFB00F0C1FA00F04FFC00F0E9FA00F045
:10085000B7FD00F081FC00F011FC4FF08043DA6836
:1008600042F00202DA601A6842F001021A600D4D8D
:10087000AC460D4C0FCCACE80F000FCCACE80F0031
:1008800094E80700ACE80300ACF8002064232922B8
:100890002946064807F021FD4FF4FA7005F06CFC7C
:1008A000E5E700BF501A0024D8B00008A81E0024B5
:1008B000704700002DE9F0478AB0002405940694A3
:1008C000079408940994554BD3F8E02042F01002A5
:1008D000C3F8E020D3F8E02002F010020092009A62
:1008E000D3F8E02042F00402C3F8E020D3F8E0207F
:1008F00002F004020192019AD3F8E02042F00102D2
:10090000C3F8E020D3F8E02002F001020292029A3C
:10091000D3F8E02042F00202C3F8E020D3F8E02050
:1009200002F002020392039AD3F8E02042F0080298
:10093000C3F8E020D3F8E03003F008030493049BED
:10094000DFF8E89022460621484603F05FFF344D69
:10095000012243F20101284603F058FF314F0122E2
:100960004FF40041384603F051FFDFF8C4802246BF
:100970001821404603F04AFF0623059301260696F8
:100980000794089405A9484603F042FE4FF44053EB
:1009900005934FF01109CDF818900794089405A914
:1009A000284603F035FE44F2020305931E4B0693DE
:1009B000079405A9284603F02BFE4FF4004ACDF812
:1009C00014A00694079405A9284603F021FE4FF4CD
:1009D000807305930694079405A9384603F018FE22
:1009E000CDF814A0CDF818900794089405A93846BE
:1009F00003F00EFE1823059306960794089405A9A4
:100A0000404603F005FE059606960794089405A94E
:100A1000284603F0FDFD0AB0BDE8F0870044025807
:100A2000001002580000025800001111000802587E
:100A3000000C025800B58BB000230793089309936C
:100A400000930193029303930493059306936E48D6
:100A50006E4A02604FF44022426008228260012206
:100A6000C26004210161037542750C228261037723
:100A7000436283620322C2624FF480520263436383
:100A800080F8383001F006FA002840F09380002307
:100A9000079307A95C4801F02FFB002840F08D80E8
:100AA0005B4B0093062301930323029340F2FF73F1
:100AB000039304230493002305936946524800F0EE
:100AC000C3FE00287CD1534B00930C23019369464D
:100AD0004D4800F0B9FE002875D14F4B009312230A
:100AE00001936946484800F0AFFE00286ED14B4B99
:100AF0000093182301936946434800F0A5FE00289F
:100B000067D1474B00934FF48073019369463E4889
:100B100000F09AFE00285FD1424B00934FF483739C
:100B200001936946384800F08FFE002857D13E4BAC
:100B300000934FF4867301936946334800F084FEB6
:100B400000284FD1394B00934FF4897301936946C4
:100B50002D4800F079FE002847D1354B00934FF423
:100B60008C7301936946284800F06EFE00283FD13F
:100B7000304B00934FF4007301936946224800F014
:100B800063FE002837D12C4B009340F206230193DB
:100B900069461D4800F058FE80BB284B00934FF477
:100BA000037301936946184800F04EFE48BB0BB032
:100BB0005DF804FBFFF77CFE69E7FFF779FE6FE75E
:100BC000FFF776FE7FE7FFF773FE86E7FFF770FE1D
:100BD0008DE7FFF76DFE94E7FFF76AFE9CE7FFF7EE
:100BE00067FEA4E7FFF764FEACE7FFF761FEB4E73A
:100BF000FFF75EFEBCE7FFF75BFEC4E7FFF758FEBA
:100C0000CBE7FFF755FED2E7C81A002400200240C8
:100C100000002143000052470040C03A0080F03EEF
:100C20000000844B0000B84F0800900C8000501D5D
:100C30001000C010000180210002B0252000F01437
:100C400070B5B8B004460021339134913591369196
:100C50003791BC2204A807F069FD22683D4B9A42F7
:100C600001D038B070BD4FF4002304934FF400332B
:100C70002C9304A802F0ACF9002865D1364BD3F8C8
:100C8000D82042F02002C3F8D820D3F8D82002F0B0
:100C900020020092009AD3F8E02042F00102C3F84B
:100CA000E020D3F8E02002F001020192019AD3F88B
:100CB000E02042F00402C3F8E020D3F8E02002F084
:100CC00004020292029AD3F8E02042F00202C3F832
:100CD000E020D3F8E03003F002030393039BFF23EB
:100CE0003393032634960025359533A91B4803F02A
:100CF0008FFC302333933496359533A9184803F08D
:100D000087FC33963496359533A9164803F080FC5A
:100D10001548164B0360092343608560C5604FF496
:100D2000806303614FF4006343614FF400538361B8
:100D30004FF48073C3610562456203F08BFF30B9E5
:100D4000094BE3649C638CE7FFF7B2FD96E7FFF77E
:100D5000AFFDF5E7002002400044025800000258B1
:100D600000080258000402582C1B00241000024006
:100D700000B583B0134BD3F8D82042F00102C3F87A
:100D8000D820D3F8D83003F001030193019B00224F
:100D900011460B2005F030F90B2005F063F9002215
:100DA00011460C2005F028F90C2005F05BF9002213
:100DB00011460D2005F020F90D2005F053F903B080
:100DC0005DF804FB0044025808B51248124B03605A
:100DD000124B4360002383600122C26003614361C0
:100DE0008361C361036205F02BFA50B90021094801
:100DF00005F000FE40B90021064805F029FE30B993
:100E000008BDFFF755FDF1E7FFF752FDF3E7FFF7E8
:100E10004FFDF5E7A41B002400540040DB3FB00069
:100E200008B51248124B0360124B436000238360E5
:100E30000122C260036143618361C361036205F003
:100E4000FFF950B90021094805F0D4FD40B900214F
:100E5000064805F0FDFD30B908BDFFF729FDF1E7B3
:100E6000FFF726FDF3E7FFF723FDF5E7F01B00246E
:100E700000580040DB3FB00030B5B9B00446002157
:100E800033913491359136913791BC2204A807F003
:100E90004DFC2368464A934204D0464A934244D0CC
:100EA00039B030BD0823049304A802F091F800285B
:100EB00038D1414CD4F8E03043F00203C4F8E030BC
:100EC000D4F8E03003F002030093009B4FF440732A
:100ED000339312233493012335930025369504234D
:100EE000379333A9354803F093FBD4F8E83043F443
:100EF0000013C4F8E830D4F8E83003F40013019389
:100F0000019B2A4629461F2005F076F81F2005F090
:100F1000A9F82A462946202005F06EF8202005F081
:100F2000A1F8BDE7FFF7C4FCC3E70823049304A8B6
:100F300002F04EF8002837D11F4DD5F8E03043F0CD
:100F40000203C5F8E030D5F8E03003F00203029365
:100F5000029B4FF44063339312233493002435945F
:100F600036940423379333A9144803F051FBD5F882
:100F7000E83043F48003C5F8E830D5F8E83003F4EE
:100F800080030393039B22462146212005F034F879
:100F9000212005F067F822462146222005F02CF892
:100FA000222005F05FF87BE7FFF782FCC4E700BF73
:100FB0000054004000580040004402580004025809
:100FC00000B587B000230193029303930493059324
:100FD000264BD3F8E82042F00102C3F8E820D3F80A
:100FE000E83003F001030093009B214BDA68C2F361
:100FF0000222C2F10703042B28BF04231946131D44
:10100000062B31D9033A4FF0FF338B40DB4303F01B
:101010000D0393401B01DBB2164A82F81C334FF0DC
:1010200080531360EF23ADF8043000230293652250
:101030000392049301A94FF0804006F0C3FA4FF0E9
:1010400080431A6822F080021A6099680A4A0A40AE
:101050009A605A6822F070025A609A6822F0800200
:101060009A6007B05DF804FB0022CCE70044025808
:1010700000ED00E000E100E0F8BFFEFF00B58DB03C
:101080002422002103A807F051FB002300930193C1
:1010900002931348134A0260436083604FF6FF7265
:1010A000C2600361836103230393012205920A2333
:1010B000079309920B9303A906F022F850B9002375
:1010C000009302936946064806F0E4F928B90DB08A
:1010D0005DF804FBFFF7ECFBF1E7FFF7E9FBF6E750
:1010E000D41C00240008004000B589B000230493FC
:1010F0000593069307930193029303931448154AAB
:101100000260F0224260836042F21072C2600361AA
:10111000836105F095FF90B94FF48053049304A9BF
:101120000B4806F033F968B900230193039301A932
:10113000074806F0AFF940B909B05DF804FBFFF7C6
:10114000B7FBE9E7FFF7B4FBEEE7FFF7B1FBF3E727
:10115000201D0024000C004000B58DB02422002189
:1011600003A807F0E3FA00230093019302931548C4
:10117000154A0260436083604FF6FF72C2600361EC
:1011800043618023836103230393012205920A2391
:10119000079309920B9303A905F0B2FF58B90023F6
:1011A0000093019302936946064806F073F928B943
:1011B0000DB05DF804FBFFF77BFBF0E7FFF778FB72
:1011C000F6E700BF6C1D00240004014000B58BB0A1
:1011D0000023059306930793089309930368284A0D
:1011E000934205D0274A934225D00BB05DF804FB0B
:1011F000254BD3F8E82042F00402C3F8E820D3F8E6
:10120000E82002F004020192019AD3F8E02042F0B3
:101210000202C3F8E020D3F8E03003F002030293A7
:10122000029BC023059302230693099305A917483F
:1012300003F0EEF9D9E7144BD3F8F02042F00202A4
:10124000C3F8F020D3F8F02002F002020392039AD0
:10125000D3F8E02042F00402C3F8E020D3F8E030F5
:1012600003F004030493049BC02305930223069315
:101270000323099305A9064803F0CAF9B5E700BF9F
:1012800000080040000401400044025800040258D5
:101290000008025800B585B003681F4A934208D081
:1012A0001E4A93421BD01E4A934226D005B05DF8D9
:1012B00004FB1C4BD3F8E82042F00802C3F8E820F6
:1012C000D3F8E83003F008030193019B00220F21BB
:1012D000322004F091FE322004F0C4FEE6E7114B08
:1012E000D3F8E82042F04002C3F8E820D3F8E83011
:1012F00003F040030293029BD8E70A4BD3F8F02097
:1013000042F48032C3F8F020D3F8F03003F4803395
:101310000393039BCAE700BF000C00400018004085
:10132000004001400044025800B589B000230393F7
:10133000049305930693079303681C4A934205D0D0
:101340001B4A93421AD009B05DF804FB194BD3F83D
:10135000E02042F00202C3F8E020D3F8E03003F0CE
:1013600002030193019B4FF4404303930223049330
:10137000079303A9104803F04BF9E4E70D4BD3F8AA
:10138000E02042F01002C3F8E020D3F8E03003F090
:1013900010030293029B602303930223049304230C
:1013A000079303A9054803F033F9CCE70018004080
:1013B0000040014000440258000402580010025846
:1013C00000B58DB00023089309930A930B93019302
:1013D0000293039304930593069307932048214AAD
:1013E00002600322426083604FF47A72C26003613C
:1013F000836105F025FE18BB4FF48053089308A9BC
:10140000174805F0C3FFF0B9154805F049FEE8B9E3
:1014100060230193002202920392059201A91048D1
:1014200005F012FFA8B904220DEB02010C4805F0EB
:101430000BFF88B90A48FFF777FF0DB05DF804FB92
:10144000FFF736FAD8E7FFF733FADDE7FFF730FAB0
:10145000DEE7FFF72DFAE6E7FFF72AFAEAE700BF33
:101460003C1C00240018004010B59AB000241694CB
:101470001794189419941394149415940C940D942F
:101480000E940F941094119412942C22214601A8CA
:1014900007F04CF93248334B036003234360846008
:1014A0004FF47A73C36004614461846105F0C8FD40
:1014B00000283FD14FF48053169316A9284805F011
:1014C00065FF002839D1264805F0EAFD002837D10C
:1014D00000231393159313A9214805F0DBFF00287F
:1014E00031D160230C9300220D920E920F92109234
:1014F000119212920CA91A4805F0A6FE30BB0422E4
:101500000CA9174805F0A0FE18BB00230193029315
:101510000393049305934FF40052069207930B93A1
:1015200001A90F4806F002F8B0B90D48FFF7FCFE1C
:101530001AB010BDFFF7BCF9BCE7FFF7B9F9C2E775
:10154000FFF7B6F9C4E7FFF7B3F9CAE7FFF7B0F959
:10155000D5E7FFF7ADF9D8E7FFF7AAF9E5E700BF50
:10156000881C00240040014008B51748174B036051
:101570004FF46123436000238360C36003610C2246
:1015800042618361C36103624362836206F04CFF80
:1015900070B900210C4807F007F860B900210A482B
:1015A00007F027F850B9084806F0DFFF48B908BD32
:1015B000FFF77EF9EDE7FFF77BF9EFE7FFF778F943
:1015C000F1E7FFF775F9F2E7A81E00240044004098
:1015D00030B5B7B004460021319132913391349146
:1015E0003591BC2202A807F0A1F82268374B9A4235
:1015F00001D037B030BD0223029302A801F0E8FC0D
:1016000000285AD1324BD3F8E82042F40032C3F814
:10161000E820D3F8E82002F400320092009AD3F8D0
:10162000E02042F00802C3F8E020D3F8E03003F0F5
:1016300008030193019B6023319302233293002519
:10164000339534950723359331A9224802F0E0FF02
:101650002148224B03602B2343608560C5604FF413
:101660008063036145618561C5610562456203F080
:10167000F1FA28BB184BE3679C631948194B0360C8
:101680002C234360402383600023C3604FF48062B7
:10169000026143618361C3610362436203F0DAFA6A
:1016A00088B90F4BA3679C6300221146262004F0E3
:1016B000A3FC262004F0D6FC9BE7FFF7F9F8A1E78E
:1016C000FFF7F6F8D6E7FFF7F3F8EAE70044004043
:1016D00000440258000C0258B81D002428000240A3
:1016E000301E0024400002407047FEE7FEE7FEE7A0
:1016F000FEE770477047704708B504F02BFD08BD42
:1017000008B5024804F09CF808BD00BF2C1B00245B
:1017100008B5024804F094F808BD00BFB81D0024C5
:1017200008B5024804F08CF808BD00BF301E002444
:10173000044A1368013313604FF080436FF00202D4
:101740001A617047381F002408B5024804F0D6FD1E
:1017500008BD00BFA41B002408B5024805F008F925
:1017600008BD00BFA41B002408B5024804F0C6FD54
:1017700008BD00BFF01B002408B5024805F0F8F8CA
:1017800008BD00BFF01B002408B5024806F00CF8A5
:1017900008BD00BFA81E002408B5024805F000FBE4
:1017A00008BD00BF201D002482B0074BD3F8F420F1
:1017B00042F00202C3F8F420D3F8F43003F002033D
:1017C0000193019B02B0704700440258184AD2F8B6
:1017D000883043F47003C2F88830164B1A6842F020
:1017E00001021A6000221A61186813490140196049
:1017F0009A61DA611A629A62DA621A635A639A63C8
:10180000DA631A645A64196821F4802119601A662F
:101810000A4B1A680A4B1340B3F1005F03D2094B1D
:101820000122C3F80821024B4FF000629A60704712
:1018300000ED00E0004402587FEDF6EA0010005C85
:101840000000FFFF00800051F0B583B0002201923C
:1018500090F85020012A00F055820346012280F8BA
:1018600050200068826812F0040F09D05A6D42F0CF
:1018700020025A650120002283F8502003B0F0BDF9
:101880000A68C2F31304002C4ED1C2F3846201240F
:101890009440C2692243C2611D684C683035220AF7
:1018A000920002F00C02A85804F01F0E1F2404FA44
:1018B0000EF420EA04000C68C4F3846C0CFA0EFCED
:1018C00040EA0C00A8501C68A26812F0040200D084
:1018D0000122A06810F0080000D0012002432FD0A0
:1018E0001868826812F0010F40F008820A68CD681B
:1018F000D0F8C040C2F3130624EA060405F0180C21
:10190000B24D25FA0CF52A40C2F313022243C0F867
:10191000C020C868AE4A904200F0B0800A68002A31
:10192000C0F26B810020A6E792FAA2F232B1B2FABD
:1019300082F202F01F0201249440AAE72022F8E775
:101940000F688D681434780E800000F0040026586B
:10195000C7F3045E4FF0070C0CFA0EFC26EA0C0CE1
:1019600005FA0EF54CEA050525509A48006800F086
:101970007040B0F1805F0BD01C68E06810F0100F71
:1019800039D14869E468C4F382046400A04006E0E9
:1019900048691C68E468C4F382046400A0400D69CF
:1019A000042D36D01F680E68603757F8254004F0C4
:1019B000004406F0F8463043204347F825001868F5
:1019C0000E694C7E012C1ED01546603050F8264022
:1019D00024F000442C4340F826401D680C69087E22
:1019E000012813D0286920F4F04004F01F04A2401D
:1019F00002432A6174E74869E468A40804F0040417
:101A00006400A040CBE74FF00045DEE74FF40062F2
:101A1000E8E71868026E02F0F8420C68B2EB846FD7
:101A20001DD01868426E02F0F8420C68B2EB846F69
:101A30001AD01868826E02F0F8420C68B2EB846F1C
:101A400017D01868C26E02F0F8420C68B2EB846FCF
:101A50007FF446AFC26E22F00042C26640E7026EDB
:101A600022F000420266DCE7426E22F0004242664B
:101A7000DFE7826E22F000428266E2E71C680A68B5
:101A8000C2F31305002D34D1900E013000F01F0079
:101A900009288CBF00200120002861D0002D37D1FB
:101AA000900E0130800600F0F840002D3CD1960EDB
:101AB000013606F01F070126BE403043002D41D1FC
:101AC000920E013202F01F0202EB420212050243A3
:101AD00088681434550EAD0005F004056659C2F34C
:101AE00004520727974026EA07069040304360518A
:101AF00014E792FAA2F048B1B0FA80F0013000F099
:101B00001F0009288CBF00200120C5E72020F5E731
:101B100092FAA2F030B1B0FA80F00130800600F005
:101B2000F840C2E72020F8E792FAA2F646B1B6FAEA
:101B300086F6013606F01F06012707FA06F6BCE70F
:101B40002026F6E792FAA2F242B1B2FA82F201320C
:101B500002F01F0202EB42021205B8E72022F6E76C
:101B6000CDB9900E0130800600F0F840FDB9960E18
:101B7000013606F01F070126BE40304365BB920EBA
:101B8000013202F01F0202EB42021E3A120542F03D
:101B9000007202439CE792FAA2F030B1B0FA80F0F2
:101BA0000130800600F0F840E0E72020F8E792FAE4
:101BB000A2F646B1B6FA86F6013606F01F060127F0
:101BC00007FA06F6D9E72026F6E700BFFFFF0F0069
:101BD0000000FF470010005C92FAA2F25AB1B2FA7C
:101BE00082F2013202F01F0202EB42021E3A12059B
:101BF00042F00072CDE72022F3E719684248434CD7
:101C0000A14218BF81420CBF0120002021D1404ECB
:101C1000B56805F0E077F0B13B48806810F001004E
:101C200000D00120394CA46814F0010400D0012434
:101C300020430CBF01200020002859D035488242A3
:101C400012D03548824231D0344882423FD0002001
:101C500011E6334EDCE73348806810F0010000D015
:101C6000012080F00100E7E715F4000FE9D12D4ACB
:101C7000914201D00020FEE547F40002B16821F056
:101C8000E0710A43B260284A126892092749A1FB11
:101C90000212920901325200019202E0019A013AC5
:101CA0000192019A002AF9D10020E4E515F0807F25
:101CB000CAD11C4A914201D00020DCE547F0807275
:101CC000B16821F0E0710A43B2600020D3E515F459
:101CD000800F15D1134A914201D00020CBE547F483
:101CE0008002B16821F0E0710A43B2600020C2E5D1
:101CF0005A6D42F020025A650120BCE50020BAE589
:101D00000020B8E50220B9E5002002400021024091
:101D100000230240000084CB000052C70000B8CF6F
:101D2000006302580060025800000024632D3E0545
:101D300038B5044603684F494F4A934218BF8B4257
:101D400023D14E4B9B6813F4403F14BF0123002363
:101D50004BB300F0EBFF05466368B3F5003F1CD0C2
:101D6000B3F5403F1DD0B3F5803F16D004F018FA0C
:101D700041F20303984257D8414B9D424ED9226805
:101D8000936843F48073936038BD3E4B9B6813F4B3
:101D9000403F14BF01230023DAE71B0CB5FBF3F52A
:101DA000E4E78508E2E74FF4002002F0F9F8054681
:101DB0006368B3F5101F2DD022D8B3F5E01F27D0EC
:101DC00004D9B3F5001FD1D14509CFE7B3F5801F82
:101DD0000DD006D9B3F5A01F09D0B3F5C01F06D0AA
:101DE000C4E7B3F5002F02D0B3F5402F04D19B0C0C
:101DF0005B00B5FBF3F5B9E7B3F5802FF7D0B5E796
:101E0000B3F5201F08D0B3F5301FAFD1050AADE7F9
:101E10000509ABE78509A9E7C509A7E72268936823
:101E200023F480739360AFE7174B9D4205D8226877
:101E3000936823F440739360A6E7144B9D4207D840
:101E40002268936823F4407343F4807393609BE7A4
:101E50000F4B9D4207D82268936823F4407343F4E4
:101E60000073936090E72268936843F44073936033
:101E70008AE700BF00200240002102400023024008
:101E8000002D31010063025821BCBE0041787D0164
:101E900081F0FA0230B583B000230193002800F0EE
:101EA00010810446436DEBB123689A6812F0005F1D
:101EB00003D09968844A0A409A6023689A6812F0AD
:101EC000805F1CD19968814A0A4042F080529A6032
:101ED0007F4B1B689B097F4AA2FB03239B090133AD
:101EE000019309E0FEF7ACFE0023A36584F85030AF
:101EF000DAE7019B013B0193019B002BF9D122689A
:101F0000936813F0805F40F09C80636D43F0100392
:101F10006365A36D43F00103A3650125936813F086
:101F2000040300D00123616D11F0100F40F0C18057
:101F3000002B40F0BE80636D23F4817343F00203F5
:101F40006365936813F0010F21D16349634B9A4293
:101F500018BF8A420CBF0122002274D18B6813F093
:101F6000010300D001235D49896811F0010100D00F
:101F700001210B430CBF0123002343B1002A6BD086
:101F8000574963688A6822F47C1213438B6004F01B
:101F900007F941F20303984202D9A368102B5DD0E0
:101FA000627D236B43EA4233A2681343227F43EAF4
:101FB0000243227F012A5CD0626A22B102F4787265
:101FC000A16A0A4313432168C868464A0240134382
:101FD000CB6021688B6813F0040300D001238A686A
:101FE00012F0080200D0012213431BD1227DE36AC4
:101FF00043EA8232C8683C4B03401343CB6094F8F9
:102000003830012B3AD02268136923F001031361A1
:102010002268136923F07043616B0B431361204600
:10202000FFF786FEE368012B3AD02268136B23F09A
:102030000F031363636D23F0030343F00103636530
:102040003CE000256AE7294B9B6813F0010300D0B0
:10205000012383F0010390E7254992E7617D226B1C
:1020600042EA41321343227F43EA024343F00C0326
:102070009FE7226A013A43EA42439DE720680269EA
:102080001C4B1340E26B511E226C42EA0142616C10
:102090000A43A16C0A43134343F001030361B7E70A
:1020A00021680B6B23F00F03A269013A13430B6302
:1020B000C0E7636D43F0100363650125284603B054
:1020C00030BD0125FAE700BFC0FFFF5FC0FFFF6F13
:1020D00000000024632D3E05002002400021024044
:1020E0000023024003C0F0FFFCBFFFFF0060025866
:1020F000006302581EF800FC90F85020012A00F0FE
:10210000A18030B49AB00346012280F8502000220A
:102110001692179200684C4A904242D000220192D7
:10212000019A002A41D0926812F0040200D00122E4
:10213000846814F0040F76D1002A74D1424C434ACB
:10214000904218BFA04239D102F5007208680028F9
:102150003FD0906820F440404C682043906018685D
:10216000394D3A4CA04218BFA84229D1A86810F0B6
:10217000010000D00120354CA46814F0010400D007
:10218000012420430CBF01200020002856D0946871
:102190002F4820400C688968214308439060002044
:1021A00046E002F580720192BAE75A6D42F02002D1
:1021B0005A65002283F8502001203CE0254AC5E7FB
:1021C0002548806810F0010000D0012080F0010057
:1021D000DBE7916821F44041916019681A4C1B4873
:1021E000814218BFA14215D1A16811F0010100D0B0
:1021F00001211648806810F0010000D00120014341
:102200000CBF01210021D9B19068114901409160B2
:1022100000200DE01049896811F0010100D0012172
:1022200081F00101EFE75A6D42F020025A6501206A
:10223000002283F850201AB030BC70470020F7E726
:102240000020F5E7022070470020024000210240F4
:10225000E0F0FFFF0063025800600258002800F021
:10226000028338B50446036813F0010F25D09C4A59
:10227000136903F03803926A102B15D0182B0FD076
:102280006368B3F5803F3FD0002B53D1944B1A685D
:1022900022F480321A601A6822F480221A6038E030
:1022A00002F00302022AEBD18D4B1B6813F4003FAE
:1022B00003D06368002B00F0D882236813F0020F6C
:1022C00000F08B80864A1369926A13F038035AD063
:1022D000182B55D0E368002B00F0C88080490A68AD
:1022E00022F0190213430B6003F040FF05467C4BBC
:1022F0001B6813F0040F40F0978003F037FF401B7A
:102300000228F4D90320B7E2754A136843F48033F6
:10231000136063682BB303F029FF0546704B1B68FD
:1023200013F4003FC9D103F021FF401B6428F5D905
:102330000320A1E2B3F5A02F09D0694B1A6822F45B
:1023400080321A601A6822F480221A60E1E7644B36
:102350001A6842F480221A601A6842F480321A60C5
:10236000D7E703F003FF05465D4B1B6813F4003FFE
:10237000A3D003F0FBFE401B6428F5D903207BE2C9
:1023800012F0030FA6D1564B1B6813F0040F03D0B5
:10239000E368002B00F06B8203F002FF41F20303BD
:1023A000984212D82269402A07D04D494B6823F43D
:1023B0007C3343EA02334B600FE0494A536823F40D
:1023C0007C3343F40033536007E0454A536823F0FD
:1023D000FE43216943EA01635360236813F0100F41
:1023E00000F088803E4A136903F03803926A082B94
:1023F00054D0182B4ED0E369002B00F0B880384A37
:10240000136843F08003136003F0B0FE0546344BBD
:102410001B6813F4807F40F0888003F0A7FE401B08
:102420000228F4D9032027E203F0BAFE41F20303A5
:10243000984212D82269402A07D029494B6823F4D0
:102440007C3343EA02334B60C7E7254A536823F4E1
:102450007C3343F400335360BFE7214A536823F0D1
:10246000FE43216943EA01635360B6E71C4A1368DF
:1024700023F00103136003F079FE0546184B1B6837
:1024800013F0040FA9D003F071FE401B0228F5D908
:102490000320F1E102F00302012AACD1104B1B68CA
:1024A00013F4807F03D0E369802B40F0E28103F0D6
:1024B00077FE41F20303984214D8226A202A07D0FB
:1024C00007494B6823F0F84343EA82634B6011E00D
:1024D000034A536823F0F84343F08043536009E014
:1024E000004402589A4AD36823F07C53216A43EA95
:1024F0000163D360236813F0080F60D06369002B79
:1025000049D0934A536F43F00103536703F02EFE03
:1025100005468F4B5B6F13F0020F50D103F026FE80
:10252000401B0228F5D90320A6E103F039FE41F251
:102530000303984212D8226A202A07D084494B68A4
:1025400023F0F84343EA82634B60D3E7804A536841
:1025500023F0F84343F080435360CBE77C4AD368D1
:1025600023F07C53216A43EA0163D360C2E7784ACF
:10257000136823F08003136003F0F8FD0546744BE5
:102580001B6813F4807FB5D003F0F0FD401B0228D8
:10259000F5D9032070E16E4A536F23F001035367AE
:1025A00003F0E4FD05466A4B5B6F13F0020F06D0A3
:1025B00003F0DCFD401B0228F5D903205CE1236811
:1025C00013F0200F29D0A3699BB1614A136843F42B
:1025D0008053136003F0CAFD05465D4B1B6813F47E
:1025E000005F1AD103F0C2FD401B0228F5D9032079
:1025F00042E1574A136823F48053136003F0B6FD99
:102600000546534B1B6813F4005F06D003F0AEFD84
:10261000401B0228F5D903202EE1236813F0040F94
:1026200021D1636A002B00F02681494A126902F029
:102630003802182A00F0EE80022B75D0444A136845
:1026400023F08073136003F091FD0446404B1B6838
:1026500013F0007F00F0DC8003F088FD001B0228EF
:10266000F4D9032008E13B4A136843F480731360F4
:1026700003F07CFD0546374B1B6813F4807F06D1C1
:1026800003F074FD401B6428F5D90320F4E0A3682F
:10269000012B0AD00BBB2E4B1A6F22F001021A67D6
:1026A0001A6F22F004021A6704E0294A136F43F0FC
:1026B00001031367A36833B303F058FD0546244BA9
:1026C0001B6F13F0020FACD103F050FD401B41F221
:1026D00088339842F3D90320CEE0052B09D01C4B58
:1026E0001A6F22F001021A671A6F22F004021A67A9
:1026F000E0E7174B1A6F42F004021A671A6F42F0B4
:1027000001021A67D6E703F031FD0546104B1B6F37
:1027100013F0020F85D003F029FD401B41F28833EE
:102720009842F3D90320A7E0094A136823F0807385
:10273000136003F01BFD0546054B1B6813F0007F7B
:102740000AD003F013FD401B0228F5D9032093E0C3
:1027500000440258004802584F4B996A4F4A0A40B9
:10276000A16AE06A41EA00110A439A62226B013AC7
:10277000C2F30802616B0139490289B20A43A16BB5
:102780000139090401F4FE010A43E16B013909062C
:1027900001F0FE410A431A63DA6A22F00102DA62AA
:1027A000596B3F4A0A40A16C42EAC1025A63DA6A95
:1027B00022F00C02216C0A43DA62DA6A22F0020289
:1027C000616C0A43DA62DA6A42F48032DA62DA6A07
:1027D00042F40032DA62DA6A42F48022DA62DA6AB9
:1027E00042F00102DA621A6842F080721A6003F065
:1027F000BDFC0446284B1B6813F0007F06D103F094
:10280000B5FC001B0228F5D9032035E0002033E099
:10281000002031E0204A916A106B012B2DD001F08D
:102820000303A26A93422AD1C1F30511E36A9942D4
:1028300027D1C0F30802236B013B9A4223D1C0F396
:102840004622636B013B9A421FD1C0F30642A36B41
:10285000013B9A421BD1C0F30660E36B013B9842F7
:1028600017D1002008E001207047012004E001207A
:1028700002E0012000E0002038BD0120FCE701203B
:10288000FAE70120F8E70120F6E70120F4E701204C
:10289000F2E70120F0E700BF004402580CFCFFFF04
:1028A0000700FFFF744B1B6903F03803102B00F087
:1028B000DE80182B10D00BB1704870476E4B1B6830
:1028C00013F0200F00F0D5806B4B1868C0F3C100E7
:1028D0006B4B23FA00F0704710B4674A916A01F01D
:1028E0000301946AC4F30510D36A03F0010C536B1F
:1028F000C3F3CC030CFB03F307EE903AF8EE677AD0
:1029000014F47C7F00F09380012965D0022900F047
:102910009180E1B107EE100AF8EE476A9FED596A1F
:1029200086EE267A544B1B6BC3F3080306EE903AEF
:10293000F8EE666A9FED546A67EE867A76EEA77ABD
:10294000F7EE006A77EEA67A27EE277A60E0136842
:1029500013F0200F23D011461268C2F3C102484B76
:10296000D34007EE103AF8EE476A07EE100AB8EEC9
:10297000476A86EE867A0B6BC3F3080306EE903A3D
:10298000F8EE666A9FED406A67EE867A76EEA77A81
:10299000F7EE006A77EEA67A27EE277A38E007EEA0
:1029A000100AF8EE476A9FED396A86EE267A324BB6
:1029B0001B6BC3F3080306EE903AF8EE666A9FEDD0
:1029C000326A67EE867A76EEA77AF7EE006A77EEDD
:1029D000A67A27EE277A1BE007EE100AF8EE476A80
:1029E0009FED286A86EE267A234B1B6BC3F3080300
:1029F00006EE903AF8EE666A9FED236A67EE867AF5
:102A000076EEA77AF7EE006A77EEA67A27EE277AB7
:102A1000194B1B6BC3F34623013307EE903AF8EED4
:102A2000677AC7EE276AFCEEE67A17EE900A5DF841
:102A3000044B704707EE100AF8EE476A9FED146AE0
:102A400086EE267A0C4B1B6BC3F3080306EE903A16
:102A5000F8EE666A9FED0C6A67EE867A76EEA77AE4
:102A6000F7EE006A77EEA67A27EE277AD0E70948D4
:102A700070470348704700BF0044025800093D00FA
:102A80000090D0030024744A000000390024744CE4
:102A90000024744B0024F400002800F0328170B54B
:102AA0000D4604469B4B1B6803F00F038B420BD271
:102AB000984A136823F00F030B431360136803F065
:102AC0000F038B4240F01F81236813F0040F0CD0DA
:102AD0002269914B9B6903F070039A4205D98E4994
:102AE0008B6923F070031A438A61236813F0080F7F
:102AF0000CD06269884BDB6903F070039A4205D9F8
:102B00008549CB6923F070031A43CA61236813F027
:102B1000100F0CD0A269804BDB6903F4E0639A428A
:102B200005D97D49CB6923F4E0631A43CA61236860
:102B300013F0200F0CD0E269774B1B6A03F070038F
:102B40009A4205D974490B6A23F070031A430A624A
:102B5000236813F0020F0CD0E2686F4B9B6903F0FF
:102B60000F039A4205D96C498B6923F00F031A436E
:102B70008A61236813F0010F41D0674A936923F4F7
:102B80007063A1680B4393616368022B0AD0032B27
:102B900027D0012B2CD0604A126812F0040F06D106
:102BA0000120ADE0126812F4003F00F0AE805A49F7
:102BB0000A6922F0070213430B6103F0D7FA0646B5
:102BC000554B1B6903F038036268B3EBC20F16D094
:102BD00003F0CCFA801B41F288339842F0D90320ED
:102BE0008EE04D4A126812F0007FE0D1012087E0AC
:102BF000494A126812F4807FD9D1012080E023680D
:102C000013F0020F0CD0E268434B9B6903F00F03F3
:102C10009A4205D240498B6923F00F031A438A6117
:102C20003C4B1B6803F00F03AB420AD9394A1368C7
:102C300023F00F032B431360136803F00F03AB4221
:102C400065D1236813F0040F0CD02269324B9B69C5
:102C500003F070039A4205D22F498B6923F0700369
:102C60001A438A61236813F0080F0CD062692A4B5B
:102C7000DB6903F070039A4205D22749CB6923F040
:102C800070031A43CA61236813F0100F0CD0A269B5
:102C9000214BDB6903F4E0639A4205D21E49CB69FC
:102CA00023F4E0631A43CA61236813F0200F0CD0A9
:102CB000E269194B1B6A03F070039A4205D2164968
:102CC0000B6A23F070031A430A62FFF7EBFD124907
:102CD0008B69C3F30323114AD35C03F01F03D8406D
:102CE0008B6903F00F03D35C03F01F0320FA03F397
:102CF0000B4A13600B4B18600B4B186803F0D4F9A8
:102D000070BD012070470120FAE70120F8E701209B
:102D1000F6E700BF002000520044025804B100084A
:102D200004000024000000240C00002408B5FFF774
:102D3000B9FD0B4A9369C3F303230A49CB5C03F043
:102D40001F0320FA03F3926902F00F02885C00F07F
:102D50001F0023FA00F0044A1060044A136008BD03
:102D60000044025804B100080400002400000024BC
:102D700008B5FFF7DBFF054BDB69C3F30213044A19
:102D8000D35C03F01F03D84008BD00BF00440258C5
:102D900004B1000808B5FFF7C9FF054BDB69C3F3B1
:102DA0000223044AD35C03F01F03D84008BD00BFD0
:102DB0000044025804B10008404B9B6A03F003032F
:102DC000032B79D070B505460E463C4A136823F0B4
:102DD0008063136003F0CAF90446384B1B6813F094
:102DE000006F06D003F0C2F9031B022BF5D90320B4
:102DF00070BD324B9A6A22F47C32296842EA013271
:102E00009A626A68013AC2F30802A9680139490264
:102E100089B20A43E9680139090401F4FE010A4351
:102E200029690139090601F0FE410A439A63DA6A09
:102E300022F0C00269690A43DA62DA6A22F02002EB
:102E4000A9690A43DA62DA6A22F01002DA62D96BFF
:102E50001B4A0A40E96942EAC102DA63DA6A42F0CF
:102E60001002DA62C6B91A46DB6A43F40023D36261
:102E7000124A136843F08063136003F077F9044645
:102E80000E4B1B6813F0006F14D103F06FF9001B99
:102E90000228F5D90320ABE7012E05D0074AD36AF3
:102EA00043F40013D362E3E7044AD36A43F4801384
:102EB000D362DDE700209BE7012070470044025801
:102EC0000700FFFF404B9B6A03F00303032B79D0FD
:102ED00070B505460E463C4A136823F080531360D4
:102EE00003F044F90446384B1B6813F0005F06D02A
:102EF00003F03CF9031B022BF5D9032070BD324BC4
:102F00009A6A22F07C72296842EA01529A626A68DF
:102F1000013AC2F30802A9680139490289B20A4399
:102F2000E9680139090401F4FE010A4329690139FC
:102F3000090601F0FE410A431A64DA6A22F440628B
:102F400069690A43DA62DA6A22F40072A9690A43FB
:102F5000DA62DA6A22F48072DA62596C1B4A0A4039
:102F6000E96942EAC1025A64DA6A42F48072DA62BA
:102F7000C6B91A46DB6A43F48003D362124A136867
:102F800043F08053136003F0F1F804460E4B1B68C6
:102F900013F0005F14D103F0E9F8001B0228F5D903
:102FA0000320ABE7012E05D0074AD36A43F08073B4
:102FB000D362E3E7044AD36A43F40003D362DDE754
:102FC00000209BE701207047004402580700FFFFE4
:102FD000F8B50446036813F0006F30D0436EB3F5C4
:102FE000001F26D00ED8EBB1B3F5801F07D1022108
:102FF0000430FFF7E1FE054645B12E4621E00126EB
:1030000035461EE0B3F5401F09D10025954A136DE2
:1030100023F44013616E0B431365002611E0012673
:1030200035460EE08F4AD36A43F40033D36200255D
:10303000ECE702212430FFF745FF0546DCE70026D8
:103040003546236813F4807F14D0636D042B30D889
:10305000DFE803F0032228080800824AD36A43F419
:103060000033D36245BB7F4A136D23F00703616DC4
:103070000B431365236813F4007F2FD0A36D802BBF
:1030800049D01ED8002B40D0402B17D10021201D45
:10309000FFF792FE054619E00021201DFFF78CFE88
:1030A0000546DFE7002104F12400FFF70BFF05468A
:1030B000D8E701263546DDE72E46DBE70126354613
:1030C0000CE0C02B02D0B3F5807F1BD155BB654A05
:1030D000136D23F4E073A16D0B431365236813F4A0
:1030E000806F45D0D4F8A430B3F5800F38D01ED807
:1030F00083B3B3F5001F17D10021201DFFF75CFE3D
:1031000005461AE001263546E8E7564AD36A43F4F5
:103110000033D362DAE7002104F12400FFF7D2FE86
:103120000546D3E72E46D9E70126354620E0B3F51C
:10313000C00F02D0B3F5000F09D1C5B9494A936D4C
:1031400023F46003D4F8A4100B43936510E0012628
:1031500035460DE0434AD36A43F40033D362ECE7CB
:10316000002104F12400FFF7ADFE0546E5E72E46F9
:10317000236813F4006F23D0D4F8A830B3F1007F94
:1031800041D00DD8002B38D0B3F1807F05D100217C
:10319000201DFFF711FE054608E0012635460FE029
:1031A000B3F1407F02D0B3F1806F23D1002D31D134
:1031B0002C4A936D23F0E063D4F8A8100B43936579
:1031C000236813F0007F2ED0A36C202B3FD026D88D
:1031D00033B1102B20D1234AD36A43F40033D36296
:1031E000002D3AD11F4AD36C23F03003A16C0B435E
:1031F000D36418E001263546E2E71A4AD36A43F45D
:103200000033D362D2E7002104F12400FFF75AFE15
:103210000546CBE72E46D3E70126354603E0302BA3
:10322000DED001263546236813F4805F2BD0E36D92
:10323000B3F5005F4CD017D8002B43D0B3F5805FB7
:103240000DD10021201DFFF7B7FD054612E0022138
:10325000201DFFF7B1FD0546C2E72E46E3E7012634
:10326000354610E000440258B3F5405F02D0B3F594
:10327000804F24D1002D32D1754A136D23F4E043E1
:10328000E16D0B431365236813F4005F37D0236EA1
:10329000B3F5003F51D027D83BB1B3F5803F20D1E3
:1032A0000121201DFFF788FD0546002D4CD1684AFD
:1032B000136D23F4E023216E0B4313651FE00126F9
:1032C0003546E0E7624AD36A43F40033D362D1E77C
:1032D000002104F12400FFF7F5FD0546CAE72E465C
:1032E000D1E7012635460AE0B3F5802FDDD0B3F5EE
:1032F000A02FDAD0B3F5403FD7D00126354623685A
:1033000013F4804F30D0D4F8AC30B3F1005F44D028
:103310001FD83BB1B3F1805F18D10121201DFFF709
:103320004BFD0546002D3FD1494A936D23F0E04304
:10333000D4F8AC100B43936516E0012104F124008E
:10334000FFF7C0FD0546B0E72E46D8E70126354613
:103350000AE0B3F1804FE5D0B3F1A04FE2D0B3F172
:10336000405FDFD001263546236813F4004F09D0B3
:10337000E36EB3F1805F19D0B3F1005F24D0D3B115
:1033800001263546236813F0807F32D0636C032B0F
:1033900059D8DFE803F026215226012104F1240048
:1033A000FFF790FD0546BDE72E46DDE7284AD36AC4
:1033B00043F40033D3626DB9254A136D23F04053B3
:1033C000E16E0B431365DDE70121201DFFF7F4FCDF
:1033D0000546F0E72E46D5E71D4AD36A43F400338D
:1033E000D3629DBB1A4AD36C23F00303616C0B4379
:1033F000D364236813F4800F2CD1236813F0010FDA
:1034000000F0A380A36F282B00F29D80DFE803F07B
:103410008B9B9B9B9B9B9B9B869B9B9B9B9B9B9B21
:10342000949B9B9B9B9B9B9B8B9B9B9B9B9B9B9B03
:103430008B9B9B9B9B9B9B9B8B000221201DFFF7E3
:10344000BBFC0546CDE701263546D2E72E46D0E740
:10345000004402588F4A136843F48073136002F0EB
:1034600085FE07468B4B1B6813F4807F05D102F065
:103470007DFEC01B6428F5D90325002D4AD1864B5B
:103480001B6FD4F8B020534013F4407F0CD0824B14
:103490001A6F22F44072196F41F480311967196F65
:1034A00021F4803119671A67D4F8B030B3F5807F02
:1034B00015D08DBBD4F8B03003F44072B2F5407F24
:1034C0001ED0754A136923F47C53136172490B6F44
:1034D000D4F8B020C2F30B0213430B678DE702F060
:1034E00045FE07466C4B1B6F13F0020FE1D102F053
:1034F0003DFEC01B41F288339842F3D90325D8E73B
:103500006548026922F47C52644901EA13131343AB
:103510000361DBE72E4670E72E466EE70121201D92
:10352000FFF74AFC0546E5B95B4A536D23F03803C3
:10353000A16F0B43536508E0012104F12400FFF75C
:10354000C1FC0546EFE701263546236813F0020F5C
:1035500016D0636F052B27D8DFE803F00A051F0A92
:103560000A0A2E46F1E70121201DFFF725FC05463A
:10357000EDB9494A536D23F00703616F0B4353655F
:10358000236813F0040F22D0D4F89030052B43D8D1
:10359000DFE803F0140F3B141414012104F124009C
:1035A000FFF790FC0546E3E701263546E8E72E469F
:1035B000E6E70121201DFFF7FFFB05467DBB364AEC
:1035C000936D23F00703D4F890100B4393652368A1
:1035D00013F0200F33D0D4F88C30B3F1005F4CD00F
:1035E00022D83BB1B3F1805F1BD10021201DFFF732
:1035F000E3FB0546002D47D1274A536D23F0E043F6
:10360000D4F88C100B43536519E0012104F1240018
:10361000FFF758FC0546D1E701263546D7E72E4689
:10362000D5E7012635460AE0B3F1804FE2D0B3F189
:10363000A04FDFD0B3F1405FDCD0012635462368D0
:1036400013F0400F37D0D4F89830B3F5006F52D054
:1036500026D83BB1B3F5806F18D10021201DFFF7AC
:10366000ABFB0546002D4DD10B4A936D23F4E0537F
:10367000D4F898100B4393651DE0022104F1240057
:10368000FFF720FC0546B5E72E46D8E7012635466C
:1036900011E000BF0048025800440258CFFFFF006D
:1036A000B3F5805FDED0B3F5A05FDBD0B3F5406F3C
:1036B000D8D001263546236813F0800F32D0D4F8D5
:1036C0009C30B3F5804F00F09D8020D83BB1B3F51E
:1036D000005F19D10021201DFFF76EFB0546002D6C
:1036E00040F09780A54A936D23F46043D4F89C1072
:1036F0000B43936516E0022104F12400FFF7E2FB7F
:103700000546AFE72E46D6E7012635460AE0B3F573
:10371000004FE4D0B3F5204FE1D0B3F5C04FDED079
:1037200001263546236813F0080F0CD0D4F88030FA
:10373000B3F5805F6FD0914A536D23F44053D4F8B2
:1037400080100B435365236813F0100F0CD0D4F88E
:103750009430B3F5807F67D0884A936D23F440732B
:10376000D4F894100B439365236813F4002F0BD007
:10377000D4F8A030B3F5803F6ED0B3F5003F61D0F0
:10378000002B5AD001263546236813F4802F0CD025
:10379000D4F88430B3F5001F76D0B3F5401F69D05C
:1037A000B3F5801F61D001263546236813F4803FAE
:1037B00007D0E36C002B70D0B3F5803F7BD001269F
:1037C0003546236813F0005F7DD1236813F4003F72
:1037D00000F08680E36FB3F5807F00F0C6807CD96F
:1037E000B3F5007F03D0B3F5407F40F0BC80002DDF
:1037F00040F0C180614A536D23F44073E16F0B4385
:1038000053656DE0022104F12400FFF75BFB0546E0
:1038100065E72E4686E7022104F12400FFF752FBFC
:10382000002888D0012686E7022104F12400FFF752
:1038300049FB002890D001268EE70021201DFFF7CC
:10384000BBFA05467DB94D4A936D23F44033D4F855
:10385000A0100B43936597E7022104F12400FFF7C2
:1038600031FB0546EEE72E468EE7444AD36A43F421
:103870000033D3627DB9414A536D23F44013D4F829
:1038800084100B43536590E7012104F12400FFF7F6
:1038900019FB0546EEE72E4687E7384AD36A43F41C
:1038A0000033D3626DB9354AD36C23F48033E16CB5
:1038B0000B43D36485E70221201DFFF77DFA0546FF
:1038C000F0E72E467DE7022104F12400FFF7FAFA23
:1038D00000283FF47AAF012677E7002B87D0012636
:1038E000236813F4801F06D0244A136D23F000438D
:1038F000216F0B431365236813F0805F07D01F4AC5
:10390000136923F48043D4F8B4100B431361236884
:1039100013F4001F06D0194A136D23F08073A16EB3
:103920000B431365236813F0804F09D0134B1A69BA
:1039300022F400421A611A69D4F8B8100A431A61D5
:103940002368002B1CDB236813F4000F07D00B4AFD
:10395000536D23F44003D4F888100B43536506B12C
:1039600001263046F8BD0126BAE7044AD36A43F47B
:103970000033D3623BE72E46B2E700BF0044025853
:10398000034AD36C23F04053216D0B43D364DAE731
:103990000044025808B5FFF7C9F9054B1B6AC3F389
:1039A0000213044AD35C03F01F03D84008BD00BFD4
:1039B0000044025804B1000810B5774A916A946A2D
:1039C000C4F3053ED36AC3F3001CD36BC3F3CC032B
:1039D0000CFB03F314F47C3F00F0D88001F00301EA
:1039E00007EE903AF8EE677A012965D0022900F0D7
:1039F000B080E1B107EE10EAB8EE477A9FED676A52
:103A0000C6EE076A644B9B6BC3F3080307EE103ADC
:103A1000B8EE477A9FED626A67EE867A77EE277A8C
:103A2000B7EE007A77EE877A66EEA76A60E01368F1
:103A300013F0200F23D011461268C2F3C102594B74
:103A4000D34007EE103AB8EE477A06EE90EAB8EEA9
:103A5000666AC7EE066A8B6BC3F3080307EE103A7B
:103A6000B8EE477A9FED4E6A67EE867A77EE277A50
:103A7000B7EE007A77EE877A66EEA76A38E007EE4F
:103A800010EAB8EE477A9FED486AC6EE076A424BE5
:103A90009B6BC3F3080307EE103AB8EE477A9FED2D
:103AA000406A67EE867A77EE277AB7EE007A77EE8D
:103AB000877A66EEA76A1BE007EE10EAB8EE477A4F
:103AC0009FED366AC6EE076A334B9B6BC3F3080360
:103AD00007EE103AB8EE477A9FED316A67EE867AC4
:103AE00077EE277AB7EE007A77EE877A66EEA76AE6
:103AF000294A936BC3F3462307EE103AB8EE477A90
:103B0000B7EE006A37EE067AC6EE877AFCEEE77A01
:103B1000C0ED007A936BC3F3064307EE103AB8EE9C
:103B2000477A37EE067AC6EE877AFCEEE77AC0ED82
:103B3000017A936BC3F3066307EE903AF8EE677A67
:103B400077EE867A86EEA77ABCEEC77A80ED027AA7
:103B500010BD07EE10EAB8EE477A9FED146AC6EE84
:103B6000076A0D4B9B6BC3F3080307EE103AB8EEE0
:103B7000477A9FED0B6A67EE867A77EE277AB7EE83
:103B8000007A77EE877A66EEA76AB1E700230360D2
:103B900043608360DCE700BF004402580024744A9D
:103BA000000000390090D0030024744C0024744BB2
:103BB00010B5774A916A946AC4F3055ED36AC3F379
:103BC000002C536CC3F3CC030CFB03F314F07C7F89
:103BD00000F0D88001F0030107EE903AF8EE677A22
:103BE000012965D0022900F0B080E1B107EE10EAAA
:103BF000B8EE477A9FED676AC6EE076A644B1B6CA6
:103C0000C3F3080307EE103AB8EE477A9FED626AF5
:103C100067EE867A77EE277AB7EE007A77EE877AC4
:103C200066EEA76A60E0136813F0200F23D01146F8
:103C30001268C2F3C102594BD34007EE103AB8EEF6
:103C4000477A06EE90EAB8EE666AC7EE066A0B6C33
:103C5000C3F3080307EE103AB8EE477A9FED4E6AB9
:103C600067EE867A77EE277AB7EE007A77EE877A74
:103C700066EEA76A38E007EE10EAB8EE477A9FEDE5
:103C8000486AC6EE076A424B1B6CC3F3080307EE93
:103C9000103AB8EE477A9FED406A67EE867A77EE83
:103CA000277AB7EE007A77EE877A66EEA76A1BE08E
:103CB00007EE10EAB8EE477A9FED366AC6EE076A5D
:103CC000334B1B6CC3F3080307EE103AB8EE477A88
:103CD0009FED316A67EE867A77EE277AB7EE007A43
:103CE00077EE877A66EEA76A294A136CC3F34623F8
:103CF00007EE103AB8EE477AB7EE006A37EE067A6A
:103D0000C6EE877AFCEEE77AC0ED007A136CC3F357
:103D1000064307EE103AB8EE477A37EE067AC6EE5B
:103D2000877AFCEEE77AC0ED017A136CC3F3066381
:103D300007EE903AF8EE677A77EE867A86EEA77A03
:103D4000BCEEC77A80ED027A10BD07EE10EAB8EE3D
:103D5000477A9FED146AC6EE076A0D4B1B6CC3F3DE
:103D6000080307EE103AB8EE477A9FED0B6A67EE4C
:103D7000867A77EE277AB7EE007A77EE877A66EE64
:103D8000A76AB1E70023036043608360DCE700BFFC
:103D9000004402580024744A000000390090D00307
:103DA0000024744C0024744B10B5774A916A946ACD
:103DB000C4F3051ED36A03F0010C536BC3F3CC03A9
:103DC0000CFB03F314F47C7F00F0D88001F00301B6
:103DD00007EE903AF8EE677A012965D0022900F0E3
:103DE000B080E1B107EE10EAB8EE477A9FED676A5E
:103DF000C6EE076A644B1B6BC3F3080307EE103A69
:103E0000B8EE477A9FED626A67EE867A77EE277A98
:103E1000B7EE007A77EE877A66EEA76A60E01368FD
:103E200013F0200F23D011461268C2F3C102594B80
:103E3000D34007EE103AB8EE477A06EE90EAB8EEB5
:103E4000666AC7EE066A0B6BC3F3080307EE103A07
:103E5000B8EE477A9FED4E6A67EE867A77EE277A5C
:103E6000B7EE007A77EE877A66EEA76A38E007EE5B
:103E700010EAB8EE477A9FED456AC6EE076A424BF4
:103E80001B6BC3F3080307EE103AB8EE477A9FEDB9
:103E9000406A67EE867A77EE277AB7EE007A77EE99
:103EA000877A66EEA76A1BE007EE10EAB8EE477A5B
:103EB0009FED396AC6EE076A334B1B6BC3F30803E9
:103EC00007EE103AB8EE477A9FED316A67EE867AD0
:103ED00077EE277AB7EE007A77EE877A66EEA76AF2
:103EE000294A136BC3F3462307EE103AB8EE477A1C
:103EF000B7EE006A37EE067AC6EE877AFCEEE77A0E
:103F0000C0ED007A136BC3F3064307EE103AB8EE28
:103F1000477A37EE067AC6EE877AFCEEE77AC0ED8E
:103F2000017A136BC3F3066307EE903AF8EE677AF3
:103F300077EE867A86EEA77ABCEEC77A80ED027AB3
:103F400010BD07EE10EAB8EE477A9FED146AC6EE90
:103F5000076A0D4B1B6BC3F3080307EE103AB8EE6C
:103F6000477A9FED0B6A67EE867A77EE277AB7EE8F
:103F7000007A77EE877A66EEA76AB1E700230360DE
:103F800043608360DCE700BF004402580024744CA7
:103F9000000000390090D0030024744A0024744BC0
:103FA00000B58BB0B0F5807F20D0B0F5007F71D028
:103FB000B0F5806F00F0C880B0F5006F00F021818F
:103FC000B0F5805F00F08281B0F5002F00F0DB815A
:103FD000B0F5803F00F01F82B0F5804F00F03982CD
:103FE000B0F5004F00F084820020B2E2954B1B6DCB
:103FF00003F00703042B00F2A382DFE803F00510AF
:104000001B0326009048A4E28E4B186810F0007045
:1040100000F09F8207A8FFF7C7FE089899E2894B36
:10402000186810F0006000F0948204A8FFF7C4FC48
:1040300004988EE2834B186810F0005000F08982DB
:1040400001A8FFF7B5FD019883E27E4AD36C03F027
:104050004053126812F0040F07D033B9794B1B6834
:10406000C3F3C1037948D84073E2764A126812F468
:10407000807F03D0B3F1805F00F06482714A1268E0
:1040800012F4003F00F06082B3F1005F00F05E8246
:1040900000205EE26B4B1B6D03F4E073802B33D08A
:1040A00015D9C02B00F05482B3F5807F1FD1654A2B
:1040B000D36C03F04053126812F0040F2FD073BB7F
:1040C000604B1B68C3F3C1036048D84041E283B131
:1040D000402B0AD15B4B186810F0006000F0398269
:1040E00004A8FFF769FC049833E2002031E20020C5
:1040F0002FE2544B186810F0007000F02A8207A8D5
:10410000FFF752FE089824E24E4B186810F000505A
:1041100000F01F8201A8FFF74BFD019819E2494A00
:10412000126812F4807F03D0B3F1805F00F0148234
:10413000444A126812F4003F00F01082B3F1005FAD
:1041400000F00E82002004E23E4B9B6D03F46003FE
:10415000B3F5800F35D016D9B3F5C00F00F0028249
:10416000B3F5000F20D1374AD36C03F040531268E7
:1041700012F0040F30D07BBB324B1B68C3F3C1037A
:104180003248D840E5E18BB1B3F5001F0AD12D4B81
:10419000186810F0006000F0DC8104A8FFF70CFC48
:1041A0000498D6E10020D4E10020D2E1254B186824
:1041B00010F0007000F0CD8107A8FFF7F5FD08981A
:1041C000C7E1204B186810F0005000F0C28101A830
:1041D000FFF7EEFC0198BCE11A4A126812F4807FE6
:1041E00003D0B3F1805F00F0BF81164A126812F469
:1041F000003F00F0BB81B3F1005F00F0B981002007
:10420000A7E1104B9B6D03F0E063B3F1007F3DD05D
:104210001ED9B3F1407F00F0AD81B3F1806F28D19A
:10422000084AD36C03F04053126812F0040F38D0E0
:10423000002B36D1034B1B68C3F3C1030348D8409E
:1042400087E100BF004402580080BB000090D0030B
:104250008BB1B3F1807F0AD1994B186810F00060E0
:1042600000F0778104A8FFF7A7FB049871E1002014
:104270006FE100206DE1924B186810F0007000F0C3
:10428000688107A8FFF790FD089862E18C4B1868D9
:1042900010F0005000F05D8101A8FFF789FC019843
:1042A00057E1874A126812F4807F03D0B3F1805F30
:1042B00000F06281824A126812F4003F00F05E81D1
:1042C000B3F1005F00F05C81002042E17C4B1B6D8C
:1042D00003F4E043B3F5005F35D016D9B3F5405F82
:1042E00000F05081B3F5804F20D1754AD36C03F0B4
:1042F0004053126812F0040F30D07BBB704B1B6828
:10430000C3F3C1036F48D84023E18BB1B3F5805F9D
:104310000AD16B4B186810F0006000F01A8104A8F5
:10432000FFF74AFB049814E1002012E1002010E19D
:10433000634B186810F0007000F00B8107A8FFF7BE
:1043400033FD089805E15E4B186810F0005000F04E
:10435000008101A8FFF72CFC0198FAE0584A126886
:1043600012F4807F03D0B3F1805F00F00D81544AD6
:10437000126812F4003F00F00981B3F1005F00F011
:1043800007810020E5E04E4B9B6D03F44033B3F50D
:10439000803F10D0B3F5003F18D00BB10020D8E01B
:1043A000474B186810F0006000F0D38004A8FFF7B6
:1043B00003FB0498CDE0424B186810F0005000F069
:1043C000C88001A8FFF7F4FB0398C2E03C4AD36C15
:1043D00003F04053126812F0040F07D033B9384B82
:1043E0001B68C3F3C1033748D840B2E0344A1268AF
:1043F00012F4807F03D0B3F1805F00F0CB80304AAD
:10440000126812F4003F00F0C780B3F1005F00F0C3
:10441000C58000209DE02A4BDB6C13F4803302D072
:1044200063B9002095E0264B186810F0007000F08A
:10443000908007A8FFF7B8FC08988AE0204B18681E
:1044400010F0006000F0858004A8FFF7B5FA069828
:104450007FE01B4B9B6D03F0E043B3F1405F35D031
:1044600015D8B3F1805F21D0B3F1005F09D1144BAF
:10447000186810F000506CD001A8FFF799FB029863
:1044800067E013B9FFF786FA63E0002061E0B3F15B
:10449000804F26D0B3F1A04F06D1094B186810F415
:1044A000003056D0084854E0002052E0044B186811
:1044B00010F000604DD004A8FFF77EFA059848E0A0
:1044C000004402580090D0030024F400344B1868D4
:1044D00010F004003DD01B68C3F3C1033148D8403D
:1044E00037E02F4B186810F4807032D02E4830E03F
:1044F0002B4B1B6D03F04053B3F1805F0CD0B3F135
:10450000005F13D00BB1002023E0254B186810F496
:1045100000301ED025481CE0214B186810F00070B8
:1045200017D007A8FFF740FC089812E01C4B18684A
:1045300010F000600DD004A8FFF73EFA059808E0DF
:10454000002006E0184804E0002002E0174800E0E0
:1045500017480BB05DF804FB1348FAE70020F8E7B2
:104560001248F6E71248F4E70F48F2E70020F0E7B8
:104570000E48EEE70E48ECE70B48EAE70020E8E7D4
:104580000A48E6E70A48E4E70748E2E70020E0E7F0
:104590000648DEE70448DCE70020DAE70348D8E70E
:1045A000004402580090D00300093D000024F400AC
:1045B0000080BB00144BDB6813F0010F09D0124BD5
:1045C000124A5A6002F188325A60DB6813F0010F18
:1045D00014D10D4BD3F80C3113F0010F10D00A4B4E
:1045E0000A4AC3F8042102F18832C3F80421D3F83F
:1045F0000C3113F0010F05D10020704701207047E6
:1046000000207047012070470020005223016745B9
:10461000F0B583B0002340E0092400E00024B4405A
:1046200044EA0C040235764E46F825404FF0B0447B
:10463000D4F88050D44325EA02064F6817F4803F2F
:1046400001D042EA05064FF0B045C5F88060D5F8C4
:10465000845004EA05064F6817F4003F01D042EA8F
:1046600005064FF0B045C5F884602D6804EA0506DC
:104670004F6817F4801F01D042EA05064FF0B0459D
:104680002E606D682C404E6816F4001F01D042EA7F
:1046900005044FF0B042546001330A6832FA03F463
:1046A00000F0AB804FF0010C0CFA03FC1CEA020294
:1046B000F2D04C68651E112C18BF012D01D9122CA7
:1046C00013D185685E000324B44025EA0405CC6854
:1046D000B4402C438460446824EA0C0C4C68C4F356
:1046E00000149C4044EA0C044460C6684FEA430C42
:1046F000032505FA0CF5EC4326EA050E8D6805FA4C
:104700000CF545EA0E05C5604D68122D18BF022D47
:1047100012D1DE08083650F8267003F007054FEA7C
:10472000850E0F2505FA0EF527EA05070D6905FA2E
:104730000EF53D4340F82650056825404C6804F0CE
:10474000030404FA0CF42C4304604C6814F0805FFA
:10475000A2D02C4CD4F8F45045F00205C4F8F45023
:10476000D4F8F44004F002040194019C9D08AE1CAE
:10477000234C54F8267003F00304A6000F24B44021
:1047800027EA040C204CA0423FF448AF04F58064B3
:10479000A04222D004F58064A04220D004F58064B9
:1047A000A0421ED004F58064A0421CD004F58064B1
:1047B000A0421AD004F58064A04218D004F58064A9
:1047C000A04216D004F58064A04214D004F58064A1
:1047D000A0423FF421AF0A2421E701241FE702246D
:1047E0001DE703241BE7042419E7052417E7062423
:1047F00015E7072413E7082411E703B0F0BD00BF55
:104800000004005800440258000002580AB18161B7
:104810007047090481617047436901EA030221EA94
:10482000030141EA0241816170470000F0B4876DE5
:104830000468664E664DAC4218BFB44242D018358B
:10484000AC423FD01835AC423CD01835AC4239D0E0
:104850001835AC4236D01835AC4233D01835AC429E
:1048600030D005F55675AC422CD01835AC4229D065
:104870001835AC4226D01835AC4223D01835AC429E
:1048800020D01835AC421DD01835AC421AD018359E
:10489000AC4217D04F4DAC4214D01435AC4211D0BD
:1048A0001435AC420ED01435AC420BD01435AC42AA
:1048B00008D01435AC4205D01435AC4202D01435C2
:1048C000AC4207D1446E856E6560C46E14B1046F4E
:1048D000456F656004683D4E3D4DAC4218BFB44223
:1048E00052D01835AC424FD01835AC424CD01835A8
:1048F000AC4249D01835AC4246D01835AC4243D012
:104900001835AC4240D005F55675AC423CD0183550
:10491000AC4239D01835AC4236D01835AC4233D021
:104920001835AC4230D01835AC422DD01835AC42D9
:104930002AD01835AC4227D0264E274DAC4218BF9E
:10494000B44211D0254DAC420ED01435AC420BD040
:104950001435AC4208D01435AC4205D01435AC4205
:1049600002D01435AC4224D1C46D04F01F050124DB
:10497000AC407C60046863608368402B20D003688F
:1049800099600368DA6014E0C46D04F01F0C3F24E2
:1049900004FA0CF4BC6005682C6824F480242C60B4
:1049A000046863608368402B05D0036899600368DE
:1049B000DA60F0BC704703689A600368D960F8E772
:1049C00003689A600368D960F3E700BF10000240F3
:1049D00028000240085402581C540258305402580F
:1049E00003682749274A934218BF8B422FD01832B9
:1049F00093422CD01832934229D01832934226D0B9
:104A00001832934223D01832934220D01832934266
:104A10001DD002F55672934219D01832934216D027
:104A20001832934213D01832934210D01832934266
:104A30000DD0183293420AD01832934207D0183260
:104A4000934204D023F0FF038365806D704710B458
:104A5000D9B210390C4AA2FB0142C2F302120B4C2C
:104A6000A25CC2655F2907D9094A1A4004328265EF
:104A7000806D5DF8044B7047054A1A408265F7E780
:104A80001000024028000240ABAAAAAA14B10008F4
:104A900000FCFFFF83699BB9836A012B0AD0022BBC
:104AA00002D00BB100207047C36A13F0807F2AD177
:104AB00000207047C36AB3F1C07F26D00020704742
:104AC000B3F5005F0AD0836A022B26D9032B26D1C7
:104AD000C36A13F0807F24D100207047836A032BC0
:104AE00003D8DFE803F01404140A00207047C36AF7
:104AF00013F0807F0DD100207047C36AB3F1C07FEF
:104B000009D0002070470120704701207047012024
:104B10007047012070470120704701207047002036
:104B2000704701207047000003682249224A9342DF
:104B300018BF8B4228D01432934225D014329342AE
:104B400022D0143293421FD0143293421CD014321C
:104B5000934219D01432934216D0DAB2103A174960
:104B6000A1FB0212120916491944A8291FD9154B95
:104B700013449B000366144B436602F01F0201239B
:104B800003FA02F282667047DBB2083B0F4AA2FBCF
:104B900003230F4A02EB1312920002660D4A42668B
:104BA000C3F30413012202FA03F383667047083249
:104BB000DDE700BF085402581C540258ABAAAAAA49
:104BC000F0FBFDBF0082001080080240CDCCCCCCB1
:104BD000009600168058025801794A1E072A2CD8E0
:104BE00030B40368154D164CA34218BFAB4218D021
:104BF0001434A34215D01434A34212D01434A34267
:104C00000FD01434A3420CD01434A34209D014346E
:104C1000A34206D00B4B0B449B00C3660A4B0367B1
:104C200005E00A4B0B449B00C366094B0367012355
:104C300003FA02F2426730BC7047704708540258CA
:104C40001C5402583F820010400902403F96001653
:104C50004059025870B5044601F088FA002C00F063
:104C6000B681054623685349534A934218BF8B4285
:104C70000CBF0122002250D030318B424DD0183170
:104C80008B424AD018318B4247D018318B4244D0E6
:104C900018318B4241D018318B423ED001F556710C
:104CA0008B423AD018318B4237D018318B4234D0F6
:104CB00018318B4231D018318B422ED018318B42B3
:104CC0002BD018318B4228D018318B4225D03B494C
:104CD0003B4A934218BF8B4200F03181394A9342DC
:104CE00000F02D811432934200F029811432934256
:104CF00000F025811432934200F021811432934256
:104D000000F01D811432934200F019814023636545
:104D1000032384F8353001204AE0002184F8341060
:104D2000022184F835107ABB274A93422CD01832DE
:104D3000934229D01832934226D01832934223D07E
:104D40001832934220D0183293421DD002F5567289
:104D5000934219D01832934216D01832934213D08E
:104D60001832934210D0183293420DD01832934229
:104D70000AD01832934207D01832934204D01A68EE
:104D800022F001021A6003E01A6822F001021A60A0
:104D900023681A6812F0010F18D001F0E7F9431BDD
:104DA000052BF5D920236365032384F835300120D2
:104DB00070BD00BF10000240280002400854025895
:104DC0001C54025830540258400002401A6881486E
:104DD0001040A168E2680A4321690A4361690A43F5
:104DE000A1690A43E1690A43216A0A430243616AED
:104DF000042900F099807849086878490140B1F1A8
:104E0000005F11D36168A1F12905A1F13F000328DA
:104E100088BF052D06D9A1F14700012802D94F39D5
:104E2000032901D842F480121A602668756925F0BA
:104E30000705636A1D43042B08D1A36A1D43E36A77
:104E400023B12046FFF726FE002872D17561204667
:104E5000FFF7C6FDE36D03F01F023F23934083601D
:104E600023685F495F4A934218BF8B4242D0183291
:104E700093423FD0183293423CD01832934239D0FB
:104E80001832934236D01832934233D018329342BC
:104E900030D002F5567293422CD01832934229D06A
:104EA0001832934226D01832934223D018329342BC
:104EB00020D0183293421DD0183293421AD01832A3
:104EC000934217D0484A934214D01432934211D0DF
:104ED000143293420ED0143293420BD014329342C8
:104EE00008D01432934205D01432934202D01432C7
:104EF000934213D12046FFF717FEA368802B59D0A9
:104F0000236E22791A60636EA26E5A606368013B59
:104F1000072B52D90023E36623676367002060658F
:104F2000012384F8353043E7E16A206B01430A43EB
:104F300061E740236365012084F8350038E70022EB
:104F400084F83420022284F835201A682749114059
:104F5000A268402A2CD0802A27D00022E06842EAAA
:104F6000D002206942EAD002606942EAD002A06918
:104F700042EAD002E06942EAD002206A42EA101214
:104F80000A431A6022681A4B13441A4AA2FB0323ED
:104F90001B099B00E3652046FFF722FDE26D02F04E
:104FA0001F0101228A4042605AE74FF48042D5E750
:104FB0001022D3E700236360A2E72046FFF70CFE30
:104FC000E36E00221A60236F626F5A60A6E7012029
:104FD000EEE600BF3F8010FE0010005C0000FFFF07
:104FE0001000024028000240085402580F00FEFF43
:104FF000F8ABFDA7CDCCCCCC002800F03E8170B53D
:10500000044690F83400012800F03981012084F82A
:10501000340094F83500C0B2012807D0002384F88A
:1050200034304FF400636365012070BD022084F8C2
:105030003500002060652068924E934DA84218BF4D
:10504000B0422FD01835A8422CD01835A84229D00C
:105050001835A84226D01835A84223D01835A842C2
:1050600020D01835A8421DD005F55675A84219D094
:105070001835A84216D01835A84213D01835A842C2
:1050800010D01835A8420DD01835A8420AD01835CE
:10509000A84207D01835A84204D0056825F00105BC
:1050A000056003E0056825F0010505602046FFF76F
:1050B000BDFB23687349744A934218BF8B4238D0B2
:1050C0001832934235D01832934232D0183293427C
:1050D0002FD0183293422CD01832934229D0183254
:1050E000934226D002F55672934222D01832934250
:1050F0001FD0183293421CD01832934219D0183264
:10510000934216D01832934213D01832934210D0E3
:10511000183293420DD01A6822F00E0242F00A02B1
:105120001A60236C93B12268136843F00403136080
:105130000CE01A6822F01E0242F016021A60236C7C
:1051400023B12268136843F00803136023684D49B4
:105150004D4A934218BF8B4242D0183293423FD0FF
:10516000183293423CD01832934239D018329342CD
:1051700036D01832934233D01832934230D002F5F1
:10518000567293422CD01832934229D0183293424F
:1051900026D01832934223D01832934220D01832AE
:1051A00093421DD0183293421AD01832934217D02E
:1051B000364A934214D01432934211D0143293429F
:1051C0000ED0143293420BD01432934208D01432D2
:1051D000934205D01432934202D0143293420ED13E
:1051E000236E1A6812F4803F03D01A6842F480726A
:1051F0001A60E36E1BB11A6842F480721A60236869
:105200002049214A934218BF8B4230D01832934232
:105210002DD0183293422AD01832934227D0183218
:10522000934224D01832934221D0183293421ED098
:1052300002F5567293421AD01832934217D01832A0
:10524000934214D01832934211D0183293420ED0A8
:10525000183293420BD01832934208D0183293423E
:1052600005D01A6842F001021A600020DDE61A68D3
:1052700042F001021A600020D7E6012070470220A8
:10528000D3E600BF10000240280002400854025834
:1052900070B5044600F06AFF002C00F091810546CD
:1052A00094F83530DBB2022B06D0802363650023EF
:1052B00084F83430012070BD23688C498C4A9342B5
:1052C00018BF8B4230D0183293422DD018329342FF
:1052D0002AD01832934227D01832934224D0183261
:1052E000934221D0183293421ED002F55672934257
:1052F0001AD01832934217D01832934214D0183271
:10530000934211D0183293420ED0183293420BD0F0
:105310001832934208D01832934205D01A6822F00E
:105320000E021A60266809E01A6822F01E021A604E
:105330002268536923F080035361266823686B4910
:105340006B4A934218BF8B4242D0183293423FD0EF
:10535000183293423CD01832934239D018329342DB
:1053600036D01832934233D01832934230D002F5FF
:10537000567293422CD01832934229D0183293425D
:1053800026D01832934223D01832934220D01832BC
:1053900093421DD0183293421AD01832934217D03C
:1053A000544A934214D01432934211D0143293428F
:1053B0000ED0143293420BD01432934208D01432E0
:1053C000934205D01432934202D01432934204D156
:1053D000226E136823F48073136023684349444AA0
:1053E000934218BF8B422FD0183293422CD01832E0
:1053F000934229D01832934226D01832934223D0B8
:105400001832934220D0183293421DD002F55672C2
:10541000934219D01832934216D01832934213D0C7
:105420001832934210D0183293420DD01832934262
:105430000AD01832934207D01832934204D01A6827
:1054400022F001021A6003E01A6822F001021A60D9
:10545000336813F0010F0ED000F088FE431B052BBC
:10546000F6D920236365002384F83430032384F8BD
:10547000353001201FE723681C491D4A934218BF9D
:105480008B4239D01832934236D01832934233D0FF
:105490001832934230D0183293422DD018329342B2
:1054A0002AD01832934227D002F55672934223D065
:1054B0001832934220D0183293421DD018329342B2
:1054C0001AD01832934217D01832934214D018329F
:1054D000934211D0183293420ED0A16DE36D03F0C8
:1054E0001F02012393404B600DE000BF10000240FB
:1054F0002800024008540258A16DE36D03F01F021A
:105500003F2393408B6023682E492F4A934218BF54
:105510008B4242D0183293423FD0183293423CD053
:105520001832934239D01832934236D0183293420F
:1055300033D01832934230D002F5567293422CD0B9
:105540001832934229D01832934226D0183293420F
:1055500023D01832934220D0183293421DD01832F3
:1055600093421AD01832934217D0184A934214D05B
:105570001432934211D0143293420ED0143293421B
:105580000BD01432934208D01432934205D0143217
:10559000934202D0143293420BD1636EA26E5A60D2
:1055A000E36E33B11A6822F480721A60236F626F5F
:1055B0005A60002084F83400012384F835307AE6FC
:1055C000012078E6100002402800024008540258EA
:1055D000002800F0298108B5024690F83530DBB28A
:1055E000022B03D080234365012008BD0368904847
:1055F00090498B4218BF83420CBF0121002166D025
:105600003030834263D01830834260D018308342F8
:105610005DD0183083425AD01830834257D01830AA
:10562000834254D000F55670834250D018308342E4
:105630004DD0183083424AD01830834247D01830BA
:10564000834244D01830834241D0183083423ED048
:10565000183083423BD0196821F00E01196013689D
:10566000A0F5956073498B4218BF83426AD0724996
:105670008B4267D018318B4264D018318B4261D095
:1056800018318B425ED018318B425BD018318B427F
:1056900058D001F556718B4254D018318B4251D0FD
:1056A00018318B424ED018318B424BD018318B427F
:1056B00048D018318B4245D018318B4242D0183136
:1056C0008B423FD0196821F0010119603EE00420AF
:1056D00082F8350081BB584A93422DD0183293424C
:1056E0002AD01832934227D01832934224D018324D
:1056F000934221D0183293421ED002F55672934243
:105700001AD01832934217D01832934214D018325C
:10571000934211D0183293420ED0183293420BD0DC
:105720001832934208D01832934205D01A6822F0FA
:1057300001021A60002058E71A6822F001021A607C
:10574000002052E7196821F00101196013683848F8
:1057500038498B4218BF834242D018318B423FD028
:1057600018318B423CD018318B4239D018318B42E2
:1057700036D018318B4233D018318B4230D001F5FE
:1057800056718B422CD018318B4229D018318B4264
:1057900026D018318B4223D018318B4220D01831BB
:1057A0008B421DD018318B421AD018318B4217D042
:1057B00022498B4214D014318B4211D014318B42C8
:1057C0000ED014318B420BD014318B4208D01431DF
:1057D0008B4205D014318B4202D014318B4217D149
:1057E000116E0B6823F480730B60906DD36D03F022
:1057F0001F0101238B404360536E916E5960D36E3D
:1058000033B1196821F480711960136F516F5960B9
:10581000002382F83430012382F83530136D2BB128
:10582000104698470020E0E6012070470020DCE6A3
:105830001000024028000240400002400854025874
:10584000F0B583B00446002301937D4B1D687D4B6A
:10585000A3FB0535AD0A876D3E68D7F800C0036825
:1058600079497A48834218BF8B420CBF012000203F
:1058700061D0774A93425ED0183293425BD018329F
:10588000934258D01832934255D01832934252D096
:10589000183293424FD002F5567293424BD01832D1
:1058A000934248D01832934245D01832934242D0A6
:1058B000183293423FD0183293423CD01832934270
:1058C00039D01832934236D06249634A934218BFA6
:1058D0008B4212D0614A93420FD0143293420CD0C3
:1058E0001432934209D01432934206D014329342B8
:1058F00003D01432934240F061821A68E16D01F0E6
:105900001F010420884010EA0C0F00F0A78212F05B
:10591000040F00F0A382786012F4004F00F05A8266
:1059200012F4803F40F05082A36C002B00F04682BE
:105930002046984742E2E26D02F01F0108228A40A9
:10594000324241D070BB424A93422BD0183293422C
:1059500028D01832934225D01832934222D01832E0
:1059600093421FD0183293421CD002F556729342D4
:1059700018D01832934215D01832934212D01832F0
:1059800093420FD0183293420CD01832934209D070
:105990001832934206D01832934203D01A68C2F3E9
:1059A000C00202E01A68C2F380026AB11A6822F0EB
:1059B00004021A60E36D03F01F0208239340BB60EA
:1059C000636D43F001036365E26D02F01F0226FA86
:1059D00002F313F0010F47D023681B481B498B4289
:1059E00018BF83423CD018318B4239D018318B42DA
:1059F00036D018318B4233D018318B4230D0183129
:105A00008B422DD018318B422AD001F556718B4232
:105A100026D018318B4223D018318B4220D0183138
:105A20008B421DD018318B421AD018318B4217D0BF
:105A300018318B4214D018318B4211D01B6813E0FF
:105A400000000024B5814E1B1000024028000240D7
:105A500040000240085402581C5402583054025866
:105A60005B6913F0800F3BD1E36D03F01F03042249
:105A700002FA03F3334240D02268964896498A429C
:105A800018BF824235D018318A4232D018318A424A
:105A90002FD018318A422CD018318A4229D018319F
:105AA0008A4226D018318A4223D001F556718A42A3
:105AB0001FD018318A421CD018318A4219D01831AF
:105AC0008A4216D018318A4213D018318A4210D037
:105AD00018318A420DD018318A420AD013680CE07E
